{
  "address": "0x86908d192BA59f89CC78496dF967Ca11038e0908",
  "abi": [
    {
      "inputs": [
        {
          "internalType": "address",
          "name": "_feeDistributor",
          "type": "address"
        },
        {
          "internalType": "uint256",
          "name": "_burnPercent",
          "type": "uint256"
        },
        {
          "internalType": "address",
          "name": "_token",
          "type": "address"
        }
      ],
      "stateMutability": "nonpayable",
      "type": "constructor"
    },
    {
      "anonymous": false,
      "inputs": [
        {
          "indexed": true,
          "internalType": "address",
          "name": "previousOwner",
          "type": "address"
        },
        {
          "indexed": true,
          "internalType": "address",
          "name": "newOwner",
          "type": "address"
        }
      ],
      "name": "OwnershipTransferred",
      "type": "event"
    },
    {
      "inputs": [],
      "name": "BURN_ADDRESS",
      "outputs": [
        {
          "internalType": "address",
          "name": "",
          "type": "address"
        }
      ],
      "stateMutability": "view",
      "type": "function"
    },
    {
      "inputs": [],
      "name": "HUNDRED",
      "outputs": [
        {
          "internalType": "uint256",
          "name": "",
          "type": "uint256"
        }
      ],
      "stateMutability": "view",
      "type": "function"
    },
    {
      "inputs": [],
      "name": "burnPercent",
      "outputs": [
        {
          "internalType": "uint256",
          "name": "",
          "type": "uint256"
        }
      ],
      "stateMutability": "view",
      "type": "function"
    },
    {
      "inputs": [
        {
          "internalType": "uint256",
          "name": "amount",
          "type": "uint256"
        }
      ],
      "name": "donate",
      "outputs": [
        {
          "internalType": "bool",
          "name": "",
          "type": "bool"
        }
      ],
      "stateMutability": "nonpayable",
      "type": "function"
    },
    {
      "inputs": [],
      "name": "feeDistributor",
      "outputs": [
        {
          "internalType": "address",
          "name": "",
          "type": "address"
        }
      ],
      "stateMutability": "view",
      "type": "function"
    },
    {
      "inputs": [],
      "name": "owner",
      "outputs": [
        {
          "internalType": "address",
          "name": "",
          "type": "address"
        }
      ],
      "stateMutability": "view",
      "type": "function"
    },
    {
      "inputs": [],
      "name": "renounceOwnership",
      "outputs": [],
      "stateMutability": "nonpayable",
      "type": "function"
    },
    {
      "inputs": [
        {
          "internalType": "uint256",
          "name": "_burnPercent",
          "type": "uint256"
        }
      ],
      "name": "setBurnPercent",
      "outputs": [],
      "stateMutability": "nonpayable",
      "type": "function"
    },
    {
      "inputs": [
        {
          "internalType": "address",
          "name": "_feeDistributor",
          "type": "address"
        }
      ],
      "name": "setFeeDistributor",
      "outputs": [],
      "stateMutability": "nonpayable",
      "type": "function"
    },
    {
      "inputs": [],
      "name": "token",
      "outputs": [
        {
          "internalType": "contract IERC20",
          "name": "",
          "type": "address"
        }
      ],
      "stateMutability": "view",
      "type": "function"
    },
    {
      "inputs": [
        {
          "internalType": "address",
          "name": "newOwner",
          "type": "address"
        }
      ],
      "name": "transferOwnership",
      "outputs": [],
      "stateMutability": "nonpayable",
      "type": "function"
    }
  ],
  "transactionHash": "0x7b7a346f1734495e34e2c5ca1c4e2055c257063de9dadb10a403ec4b4d30e091",
  "args": [
    "0x0a9aE19397a699C81e8d0E1B7C893E8cC4A6CEE3",
    7000,
    "0xaB45225DD47f52AC4D836A6c652fe214De10Ac39"
  ],
  "solcInputHash": "286b8a6315054ad25e3410af58bf1d9c",
  "bytecode": "0x6080604052600180546001600160a01b0319168117905561271060025534801561002857600080fd5b506040516107b93803806107b98339818101604052606081101561004b57600080fd5b50805160208201516040909201519091906000610066610121565b600080546001600160a01b0319166001600160a01b0383169081178255604051929350917f8be0079c531659141344cd1fd0a4f28419497f9722a3daafe3b4186f6b6457e0908290a35060025460055411156100c157600080fd5b6001600160a01b038316158015906100e157506001600160a01b03811615155b6100ea57600080fd5b600380546001600160a01b039485166001600160a01b03199182161790915560059290925560048054919093169116179055610125565b3390565b610685806101346000396000f3fe608060405234801561001057600080fd5b50600436106100a95760003560e01c8063ccfc2e8d11610071578063ccfc2e8d1461011b578063f14faf6f14610141578063f2fde38b14610172578063f85fc0ab14610198578063fc0c546a146101a0578063fccc2813146101a8576100a9565b806303807ee5146100ae5780630d43e8ad146100c8578063715018a6146100ec5780638da5cb5b146100f6578063bb1570da146100fe575b600080fd5b6100b66101b0565b60408051918252519081900360200190f35b6100d06101b6565b604080516001600160a01b039092168252519081900360200190f35b6100f46101c5565b005b6100d0610271565b6100f46004803603602081101561011457600080fd5b5035610280565b6100f46004803603602081101561013157600080fd5b50356001600160a01b03166102f6565b61015e6004803603602081101561015757600080fd5b503561037a565b604080519115158252519081900360200190f35b6100f46004803603602081101561018857600080fd5b50356001600160a01b03166104df565b6100b66105e1565b6100d06105e7565b6100d06105f6565b60055481565b6003546001600160a01b031681565b6101cd610605565b6001600160a01b03166101de610271565b6001600160a01b031614610227576040805162461bcd60e51b81526020600482018190526024820152600080516020610630833981519152604482015290519081900360640190fd5b600080546040516001600160a01b03909116907f8be0079c531659141344cd1fd0a4f28419497f9722a3daafe3b4186f6b6457e0908390a3600080546001600160a01b0319169055565b6000546001600160a01b031690565b610288610605565b6001600160a01b0316610299610271565b6001600160a01b0316146102e2576040805162461bcd60e51b81526020600482018190526024820152600080516020610630833981519152604482015290519081900360640190fd5b6002548111156102f157600080fd5b600555565b6102fe610605565b6001600160a01b031661030f610271565b6001600160a01b031614610358576040805162461bcd60e51b81526020600482018190526024820152600080516020610630833981519152604482015290519081900360640190fd5b600380546001600160a01b0319166001600160a01b0392909216919091179055565b60008061271060055484028161038c57fe5b0490506000612710600554612710038502816103a457fe5b60048054600154604080516323b872dd60e01b815233948101949094526001600160a01b039182166024850152604484018890525194909304945091909116916323b872dd916064808201926020929091908290030181600087803b15801561040c57600080fd5b505af1158015610420573d6000803e3d6000fd5b505050506040513d602081101561043657600080fd5b505161044157600080fd5b60048054600354604080516323b872dd60e01b815233948101949094526001600160a01b03918216602485015260448401859052519116916323b872dd9160648083019260209291908290030181600087803b1580156104a057600080fd5b505af11580156104b4573d6000803e3d6000fd5b505050506040513d60208110156104ca57600080fd5b50516104d557600080fd5b5060019392505050565b6104e7610605565b6001600160a01b03166104f8610271565b6001600160a01b031614610541576040805162461bcd60e51b81526020600482018190526024820152600080516020610630833981519152604482015290519081900360640190fd5b6001600160a01b0381166105865760405162461bcd60e51b815260040180806020018281038252602681526020018061060a6026913960400191505060405180910390fd5b600080546040516001600160a01b03808516939216917f8be0079c531659141344cd1fd0a4f28419497f9722a3daafe3b4186f6b6457e091a3600080546001600160a01b0319166001600160a01b0392909216919091179055565b60025481565b6004546001600160a01b031681565b6001546001600160a01b031681565b339056fe4f776e61626c653a206e6577206f776e657220697320746865207a65726f20616464726573734f776e61626c653a2063616c6c6572206973206e6f7420746865206f776e6572a264697066735822122050a9abfa121de00b2d137b9e288a97a24715a3a327e7151aefc24d147af332fe64736f6c634300060c0033",
  "devdoc": {
    "kind": "dev",
    "methods": {
      "owner()": {
        "details": "Returns the address of the current owner."
      },
      "renounceOwnership()": {
        "details": "Leaves the contract without owner. It will not be possible to call `onlyOwner` functions anymore. Can only be called by the current owner. NOTE: Renouncing ownership will leave the contract without an owner, thereby removing any functionality that is only available to the owner."
      },
      "transferOwnership(address)": {
        "details": "Transfers ownership of the contract to a new account (`newOwner`). Can only be called by the current owner."
      }
    },
    "version": 1
  },
  "userdoc": {
    "kind": "user",
    "methods": {},
    "version": 1
  },
  "storageLayout": {
    "storage": [
      {
        "astId": 253,
        "contract": "contracts/PenaltyHandler.sol:PenaltyHandler",
        "label": "_owner",
        "offset": 0,
        "slot": "0",
        "type": "t_address"
      },
      {
        "astId": 6300,
        "contract": "contracts/PenaltyHandler.sol:PenaltyHandler",
        "label": "BURN_ADDRESS",
        "offset": 0,
        "slot": "1",
        "type": "t_address"
      },
      {
        "astId": 6303,
        "contract": "contracts/PenaltyHandler.sol:PenaltyHandler",
        "label": "HUNDRED",
        "offset": 0,
        "slot": "2",
        "type": "t_uint256"
      },
      {
        "astId": 6305,
        "contract": "contracts/PenaltyHandler.sol:PenaltyHandler",
        "label": "feeDistributor",
        "offset": 0,
        "slot": "3",
        "type": "t_address"
      },
      {
        "astId": 6307,
        "contract": "contracts/PenaltyHandler.sol:PenaltyHandler",
        "label": "token",
        "offset": 0,
        "slot": "4",
        "type": "t_contract(IERC20)1291"
      },
      {
        "astId": 6309,
        "contract": "contracts/PenaltyHandler.sol:PenaltyHandler",
        "label": "burnPercent",
        "offset": 0,
        "slot": "5",
        "type": "t_uint256"
      }
    ],
    "types": {
      "t_address": {
        "encoding": "inplace",
        "label": "address",
        "numberOfBytes": "20"
      },
      "t_contract(IERC20)1291": {
        "encoding": "inplace",
        "label": "contract IERC20",
        "numberOfBytes": "20"
      },
      "t_uint256": {
        "encoding": "inplace",
        "label": "uint256",
        "numberOfBytes": "32"
      }
    }
  }
}