{
  "address": "0x8AeFE018541Aaf6cF8Bd6B6b64A57EeACE53f612",
  "abi": [
    {
      "name": "CommitAdmin",
      "inputs": [
        {
          "name": "admin",
          "type": "address",
          "indexed": false
        }
      ],
      "anonymous": false,
      "type": "event"
    },
    {
      "name": "ApplyAdmin",
      "inputs": [
        {
          "name": "admin",
          "type": "address",
          "indexed": false
        }
      ],
      "anonymous": false,
      "type": "event"
    },
    {
      "name": "ToggleAllowCheckpointToken",
      "inputs": [
        {
          "name": "toggle_flag",
          "type": "bool",
          "indexed": false
        }
      ],
      "anonymous": false,
      "type": "event"
    },
    {
      "name": "CheckpointToken",
      "inputs": [
        {
          "name": "time",
          "type": "uint256",
          "indexed": false
        },
        {
          "name": "tokens",
          "type": "uint256",
          "indexed": false
        }
      ],
      "anonymous": false,
      "type": "event"
    },
    {
      "name": "Claimed",
      "inputs": [
        {
          "name": "recipient",
          "type": "address",
          "indexed": true
        },
        {
          "name": "amount",
          "type": "uint256",
          "indexed": false
        },
        {
          "name": "claim_epoch",
          "type": "uint256",
          "indexed": false
        },
        {
          "name": "max_epoch",
          "type": "uint256",
          "indexed": false
        }
      ],
      "anonymous": false,
      "type": "event"
    },
    {
      "stateMutability": "nonpayable",
      "type": "constructor",
      "inputs": [
        {
          "name": "_voting_escrow",
          "type": "address"
        },
        {
          "name": "_start_time",
          "type": "uint256"
        },
        {
          "name": "_token",
          "type": "address"
        },
        {
          "name": "_admin",
          "type": "address"
        },
        {
          "name": "_emergency_return",
          "type": "address"
        }
      ],
      "outputs": []
    },
    {
      "stateMutability": "nonpayable",
      "type": "function",
      "name": "checkpoint_token",
      "inputs": [],
      "outputs": [],
      "gas": 850642
    },
    {
      "stateMutability": "view",
      "type": "function",
      "name": "ve_for_at",
      "inputs": [
        {
          "name": "_user",
          "type": "address"
        },
        {
          "name": "_timestamp",
          "type": "uint256"
        }
      ],
      "outputs": [
        {
          "name": "",
          "type": "uint256"
        }
      ],
      "gas": 464086
    },
    {
      "stateMutability": "nonpayable",
      "type": "function",
      "name": "checkpoint_total_supply",
      "inputs": [],
      "outputs": [],
      "gas": 9947648
    },
    {
      "stateMutability": "view",
      "type": "function",
      "name": "claimable",
      "inputs": [],
      "outputs": [
        {
          "name": "",
          "type": "uint256"
        }
      ],
      "gas": 774184
    },
    {
      "stateMutability": "view",
      "type": "function",
      "name": "claimable",
      "inputs": [
        {
          "name": "addr",
          "type": "address"
        }
      ],
      "outputs": [
        {
          "name": "",
          "type": "uint256"
        }
      ],
      "gas": 774184
    },
    {
      "stateMutability": "nonpayable",
      "type": "function",
      "name": "claim",
      "inputs": [],
      "outputs": [
        {
          "name": "",
          "type": "uint256"
        }
      ],
      "gas": 11744585
    },
    {
      "stateMutability": "nonpayable",
      "type": "function",
      "name": "claim",
      "inputs": [
        {
          "name": "_addr",
          "type": "address"
        }
      ],
      "outputs": [
        {
          "name": "",
          "type": "uint256"
        }
      ],
      "gas": 11744585
    },
    {
      "stateMutability": "nonpayable",
      "type": "function",
      "name": "claim_many",
      "inputs": [
        {
          "name": "_receivers",
          "type": "address[20]"
        }
      ],
      "outputs": [
        {
          "name": "",
          "type": "bool"
        }
      ],
      "gas": 27809164
    },
    {
      "stateMutability": "nonpayable",
      "type": "function",
      "name": "updateReward",
      "inputs": [
        {
          "name": "_addr",
          "type": "address"
        }
      ],
      "outputs": [
        {
          "name": "",
          "type": "bool"
        }
      ],
      "gas": 691
    },
    {
      "stateMutability": "nonpayable",
      "type": "function",
      "name": "donate",
      "inputs": [
        {
          "name": "_amount",
          "type": "uint256"
        }
      ],
      "outputs": [
        {
          "name": "",
          "type": "bool"
        }
      ],
      "gas": 853433
    },
    {
      "stateMutability": "nonpayable",
      "type": "function",
      "name": "commit_admin",
      "inputs": [
        {
          "name": "_addr",
          "type": "address"
        }
      ],
      "outputs": [],
      "gas": 39685
    },
    {
      "stateMutability": "nonpayable",
      "type": "function",
      "name": "apply_admin",
      "inputs": [],
      "outputs": [],
      "gas": 43873
    },
    {
      "stateMutability": "nonpayable",
      "type": "function",
      "name": "toggle_allow_checkpoint_token",
      "inputs": [],
      "outputs": [],
      "gas": 41709
    },
    {
      "stateMutability": "nonpayable",
      "type": "function",
      "name": "kill_me",
      "inputs": [],
      "outputs": [],
      "gas": 46891
    },
    {
      "stateMutability": "nonpayable",
      "type": "function",
      "name": "recover_balance",
      "inputs": [
        {
          "name": "_coin",
          "type": "address"
        }
      ],
      "outputs": [
        {
          "name": "",
          "type": "bool"
        }
      ],
      "gas": 16997
    },
    {
      "stateMutability": "view",
      "type": "function",
      "name": "start_time",
      "inputs": [],
      "outputs": [
        {
          "name": "",
          "type": "uint256"
        }
      ],
      "gas": 2850
    },
    {
      "stateMutability": "view",
      "type": "function",
      "name": "time_cursor",
      "inputs": [],
      "outputs": [
        {
          "name": "",
          "type": "uint256"
        }
      ],
      "gas": 2880
    },
    {
      "stateMutability": "view",
      "type": "function",
      "name": "time_cursor_of",
      "inputs": [
        {
          "name": "arg0",
          "type": "address"
        }
      ],
      "outputs": [
        {
          "name": "",
          "type": "uint256"
        }
      ],
      "gas": 3176
    },
    {
      "stateMutability": "view",
      "type": "function",
      "name": "user_epoch_of",
      "inputs": [
        {
          "name": "arg0",
          "type": "address"
        }
      ],
      "outputs": [
        {
          "name": "",
          "type": "uint256"
        }
      ],
      "gas": 3206
    },
    {
      "stateMutability": "view",
      "type": "function",
      "name": "last_token_time",
      "inputs": [],
      "outputs": [
        {
          "name": "",
          "type": "uint256"
        }
      ],
      "gas": 2970
    },
    {
      "stateMutability": "view",
      "type": "function",
      "name": "tokens_per_week",
      "inputs": [
        {
          "name": "arg0",
          "type": "uint256"
        }
      ],
      "outputs": [
        {
          "name": "",
          "type": "uint256"
        }
      ],
      "gas": 3045
    },
    {
      "stateMutability": "view",
      "type": "function",
      "name": "voting_escrow",
      "inputs": [],
      "outputs": [
        {
          "name": "",
          "type": "address"
        }
      ],
      "gas": 3030
    },
    {
      "stateMutability": "view",
      "type": "function",
      "name": "token",
      "inputs": [],
      "outputs": [
        {
          "name": "",
          "type": "address"
        }
      ],
      "gas": 3060
    },
    {
      "stateMutability": "view",
      "type": "function",
      "name": "total_received",
      "inputs": [],
      "outputs": [
        {
          "name": "",
          "type": "uint256"
        }
      ],
      "gas": 3090
    },
    {
      "stateMutability": "view",
      "type": "function",
      "name": "token_last_balance",
      "inputs": [],
      "outputs": [
        {
          "name": "",
          "type": "uint256"
        }
      ],
      "gas": 3120
    },
    {
      "stateMutability": "view",
      "type": "function",
      "name": "ve_supply",
      "inputs": [
        {
          "name": "arg0",
          "type": "uint256"
        }
      ],
      "outputs": [
        {
          "name": "",
          "type": "uint256"
        }
      ],
      "gas": 3195
    },
    {
      "stateMutability": "view",
      "type": "function",
      "name": "admin",
      "inputs": [],
      "outputs": [
        {
          "name": "",
          "type": "address"
        }
      ],
      "gas": 3180
    },
    {
      "stateMutability": "view",
      "type": "function",
      "name": "future_admin",
      "inputs": [],
      "outputs": [
        {
          "name": "",
          "type": "address"
        }
      ],
      "gas": 3210
    },
    {
      "stateMutability": "view",
      "type": "function",
      "name": "can_checkpoint_token",
      "inputs": [],
      "outputs": [
        {
          "name": "",
          "type": "bool"
        }
      ],
      "gas": 3240
    },
    {
      "stateMutability": "view",
      "type": "function",
      "name": "emergency_return",
      "inputs": [],
      "outputs": [
        {
          "name": "",
          "type": "address"
        }
      ],
      "gas": 3270
    },
    {
      "stateMutability": "view",
      "type": "function",
      "name": "is_killed",
      "inputs": [],
      "outputs": [
        {
          "name": "",
          "type": "bool"
        }
      ],
      "gas": 3300
    }
  ],
  "transactionHash": "0xa8103ef5b974355dc7e294dc10cce557ff862f5657f8331ede6cc9663c977906",
  "args": [
    "0xD0640c69E32177737BC49fE1D005C9cCB60Ac8aC",
    1657360799,
    "0xaB45225DD47f52AC4D836A6c652fe214De10Ac39",
    "0x0a9aE19397a699C81e8d0E1B7C893E8cC4A6CEE3",
    "0x0a9aE19397a699C81e8d0E1B7C893E8cC4A6CEE3"
  ],
  "bytecode": "0x6020611cd76080396080518060a01c611cd25760e05260206040611cd7016080396080518060a01c611cd2576101005260206060611cd7016080396080518060a01c611cd2576101205260206080611cd7016080396080518060a01c611cd2576101405260206020611cd70160803960805162093a808082049050905062093a80808202821582848304141715611cd25790509050610160526101605160015561016051600555610160516002556101005166038d7ea4c680075560e05166038d7ea4c68006556101205166071afd498d000a556101405166071afd498d000d55600166071afd498d000c55611cba56600436101561000d57610f4a565b60046000601c3760005134611bc55763811a40fe811861007a5766071afd498d000a54331861003d57600161006b565b66071afd498d000c5461005157600061006b565b600554620151808181830110611bc5578082019050905042115b15611bc557610078610f50565b005b63ace296fb811861021f576004358060a01c611bc5576103005266038d7ea4c68006546103205263010ae7576103605261030051610380526020610360602461037c610320515afa6100d1573d600060003e3d6000fd5b601f3d1115611bc55761036051610340526103205160e052610300516101005260243561012052610340516101405261010b61038061137a565b61038051610360526328d09d4761040052610300516104205261036051610440526080610400604461041c610320515afa61014b573d600060003e3d6000fd5b607f3d1115611bc55761040080518060801d81607f1d18611bc5576103805260208101518060801d81607f1d18611bc5576103a05260408101516103c05260608101516103e05250610380516103a0516024356103c051808210611bc5578082039050905080607f1c611bc5578082028060801d81607f1d18611bc557905090508082038060801d81607f1d18611bc55790509050610400526000610400511261020d576104005160008112611bc55761042052602061042061021d5661021d565b600061042052602061042061021d565bf35b63b21ed5028118610234576102326114ab565b005b63af38d757811861024957336105c052610264565b63402914f581186102f8576004358060a01c611bc5576105c0525b6080366105e0376001610660526105c0516103005266038d7ea4c68006546103205260055462093a808082049050905062093a80808202821582848304141715611bc55790509050610340526102bb6106806116da565b61068080516105e052602081015161060052604081015161062052606081015161064052608081015161066052506105e051610680526020610680f35b634e71d92d811861030d57336105c052610328565b631e83409a811861053a576004358060a01c611bc5576105c0525b600054611bc557600160005566071afd498d000e54611bc5576002544210610352576103526114ab565b6005546105e05266071afd498d000c5461036d576000610388565b6105e051620151808181830110611bc5578082019050905042115b1561039b57610395610f50565b426105e0525b6105e05162093a808082049050905062093a80808202821582848304141715611bc557905090506105e052608036610600376001610680526105c0516103005266038d7ea4c6800654610320526105e051610340526103fb6106a06116da565b6106a08051610600526020810151610620526040810151610640526060810151610660526080810151610680525061068051156104a2576106205160046105c05160a0526080526040608020556106405160036105c05160a0526080526040608020556105c0517f9cdcf2f7714cca3508c7f0110b04a90a80a3a8dd0e35de99689db74d28c5383e610600516106a052610620516106c052610660516106e05260606106a0a25b600061060051146105265766038d7ea4c68007546106a05263a9059cbb6106c0526105c0516106e052610600516107005260206106c060446106dc60006106a0515af16104f4573d600060003e3d6000fd5b601f3d1115611bc5576106c05115611bc55766038d7ea4c68009805461060051808210611bc557808203905090508155505b610600516106a05260206106a06000600055f35b637b935a2381186108f8576004358060a01c611bc5576105c0526024358060a01c611bc5576105e0526044358060a01c611bc557610600526064358060a01c611bc557610620526084358060a01c611bc5576106405260a4358060a01c611bc5576106605260c4358060a01c611bc5576106805260e4358060a01c611bc5576106a052610104358060a01c611bc5576106c052610124358060a01c611bc5576106e052610144358060a01c611bc55761070052610164358060a01c611bc55761072052610184358060a01c611bc557610740526101a4358060a01c611bc557610760526101c4358060a01c611bc557610780526101e4358060a01c611bc5576107a052610204358060a01c611bc5576107c052610224358060a01c611bc5576107e052610244358060a01c611bc55761080052610264358060a01c611bc55761082052600054611bc557600160005566071afd498d000e54611bc55760025442106106a7576106a76114ab565b6005546108405266071afd498d000c546106c25760006106dd565b61084051620151808181830110611bc5578082019050905042115b156106f0576106ea610f50565b42610840525b6108405162093a808082049050905062093a80808202821582848304141715611bc557905090506108405266038d7ea4c68006546108605266038d7ea4c68007546108805260a0366108a03760016109405261098060006014818352015b602061098051026105c00151610960526109605161076b576108b9565b61096051610300526108605161032052610840516103405261078e6109a06116da565b6109a080516108c05260208101516108e052604081015161090052606081015161092052608081015161094052506109405115610835576108e05160046109605160a0526080526040608020556109005160036109605160a052608052604060802055610960517f9cdcf2f7714cca3508c7f0110b04a90a80a3a8dd0e35de99689db74d28c5383e6108c0516109a0526108e0516109c052610920516109e05260606109a0a25b60006108c051146108a95763a9059cbb6109a052610960516109c0526108c0516109e05260206109a060446109bc6000610880515af161087a573d600060003e3d6000fd5b601f3d1115611bc5576109a05115611bc5576108a080516108c0518181830110611bc557808201905090508152505b815160010180835281141561074e575b505060006108a051146108e65766038d7ea4c6800980546108a051808210611bc557808203905090508155505b60016109605260206109606000600055f35b63632447c9811861091e576004358060a01c611bc55760e0526001610100526020610100f35b63f14faf6f81186109c857600060043514611bc5576323b872dd6101e052336102005230610220526004356102405260206101e060646101fc600066038d7ea4c68007545af1610973573d600060003e3d6000fd5b601f3d1115611bc5576101e05066071afd498d000c546109945760006109ae565b600554620151808181830110611bc5578082019050905042115b156109bb576109bb610f50565b60016101e05260206101e0f35b63b1d3db758118610a2c576004358060a01c611bc55760e05266071afd498d000a543318611bc55760e05166071afd498d000b557f59a407284ae6e2986675fa1400d6498af928ed01f4fd2dd6be4a2a8b4fc35b3460e051610100526020610100a1005b63c0e991a68118610a9e5766071afd498d000a543318611bc557600066071afd498d000b5414611bc55766071afd498d000b5460e05260e05166071afd498d000a557f756f845176805c8ebf249854e909627308157f63c96e470e44a9e8549ba6fb1e60e051610100526020610100a1005b632121bfc38118610b015766071afd498d000a543318611bc55766071afd498d000c541560e05260e05166071afd498d000c557fdbe6ac1081ebd8e648718341126659456f4009fcadfe1c23f66f5e61522610b260e051610100526020610100a1005b63e36988538118610bb95766071afd498d000a543318611bc557600166071afd498d000e5566038d7ea4c680075460e05263a9059cbb6101405266071afd498d000d54610160526370a082316101005230610120526020610100602461011c60e0515afa610b74573d600060003e3d6000fd5b601f3d1115611bc55761010051610180526020610140604461015c600060e0515af1610ba5573d600060003e3d6000fd5b601f3d1115611bc5576101405115611bc557005b63db2f5f798118610d34576004358060a01c611bc55760e05266071afd498d000a543318611bc55766038d7ea4c680075460e05114611bc5576370a082316101205230610140526020610120602461013c60e0515afa610c1e573d600060003e3d6000fd5b601f3d1115611bc557610120516101005260006004610160527fa9059cbb00000000000000000000000000000000000000000000000000000000610180526101606004806020846101a00101826020850160045afa50508051820191505066071afd498d000d546020826101a0010152602081019050610100516020826101a0010152602081019050806101a0526101a0505060206102406101a0516101c0600060e0515af1610cd3573d600060003e3d6000fd5b61022060203d808211610ce65781610ce8565b805b905090508152805160200180610120828460045afa9050505060006101205114610d2757610140516101205181816020036008021c9050905015611bc5575b6001610160526020610160f35b63834ee4178118610d4b5760015460e052602060e0f35b63127dcbd38118610d625760025460e052602060e0f35b632a2a314b8118610d97576004358060a01c611bc55760e052600360e05160a052608052604060802054610100526020610100f35b63d5d46e888118610dcc576004358060a01c611bc55760e052600460e05160a052608052604060802054610100526020610100f35b637f58e8f88118610de35760055460e052602060e0f35b63edf599978118610e1057600160043566038d7ea4c68000811015611bc557026006015460e052602060e0f35b63dfe050318118610e2d5766038d7ea4c680065460e052602060e0f35b63fc0c546a8118610e4a5766038d7ea4c680075460e052602060e0f35b632f0c222e8118610e675766038d7ea4c680085460e052602060e0f35b6322b04bfc8118610e845766038d7ea4c680095460e052602060e0f35b63d4dafba88118610eb757600160043566038d7ea4c68000811015611bc5570266038d7ea4c6800a015460e052602060e0f35b63f851a4408118610ed45766071afd498d000a5460e052602060e0f35b6317f7182a8118610ef15766071afd498d000b5460e052602060e0f35b63aeba47378118610f0e5766071afd498d000c5460e052602060e0f35b632c3f531e8118610f2b5766071afd498d000d5460e052602060e0f35b639c868ac08118610f485766071afd498d000e5460e052602060e0f35b505b60006000fd5b6370a082316101005230610120526020610100602461011c66038d7ea4c68007545afa610f82573d600060003e3d6000fd5b601f3d1115611bc5576101005160e05260e05166038d7ea4c6800954808210611bc557808203905090506101005260e05166038d7ea4c6800955600554610120524261012051808210611bc5578082039050905061014052426005556101205162093a808082049050905062093a80808202821582848304141715611bc55790509050610160526000610180526101a060006014818352015b6101605162093a808181830110611bc557808201905090506101805261018051421061110857610140511561105157600061105b565b6101205161018051145b6110d15760016101605166038d7ea4c68000811015611bc557026006018054610100516101805161012051808210611bc55780820390509050808202821582848304141715611bc5579050905061014051808015611bc5578204905090508181830110611bc557808201905090508155506111c9565b60016101605166038d7ea4c68000811015611bc557026006018054610100518181830110611bc557808201905090508155506111c9565b610140511561111857600061111f565b6101205142145b6111925760016101605166038d7ea4c68000811015611bc557026006018054610100514261012051808210611bc55780820390509050808202821582848304141715611bc5579050905061014051808015611bc5578204905090508181830110611bc557808201905090508155506111e9565b60016101605166038d7ea4c68000811015611bc557026006018054610100518181830110611bc557808201905090508155506111e9565b61018051610120526101805161016052815160010180835281141561101b575b50507fce749457b74e10f393f2c6b1ce4261b78791376db5a3f501477a809f03f500d6426101a052610100516101c05260406101a0a1565b60006101205263900cf0cf610160526020610160600461017c60e0515afa61124e573d600060003e3d6000fd5b601f3d1115611bc557610160516101405261016060006080818352015b61014051610120511061127d5761136f565b61012051610140518181830110611bc5578082019050905060028181830110611bc557808201905090506002808204905090506101805263d1febfb96102205261018051610240526080610220602461023c60e0515afa6112e3573d600060003e3d6000fd5b607f3d1115611bc55761022080518060801d81607f1d18611bc5576101a05260208101518060801d81607f1d18611bc5576101c05260408101516101e05260608101516102005250610100516101e051111561135657610180516001808210611bc557808203905090506101405261135f565b61018051610120525b815160010180835281141561126b575b505061012051815250565b60006101605261014051610180526101a060006080818352015b6101805161016051106113a6576114a0565b61016051610180518181830110611bc5578082019050905060028181830110611bc557808201905090506002808204905090506101c0526328d09d476102605261010051610280526101c0516102a0526080610260604461027c60e0515afa611414573d600060003e3d6000fd5b607f3d1115611bc55761026080518060801d81607f1d18611bc5576101e05260208101518060801d81607f1d18611bc557610200526040810151610220526060810151610240525061012051610220511115611487576101c0516001808210611bc5578082039050905061018052611490565b6101c051610160525b8151600101808352811415611394575b505061016051815250565b66038d7ea4c68006546102c0526002546102e0524262093a808082049050905062093a80808202821582848304141715611bc557905090506103005263c2c4c5c1610320526102c0513b15611bc55760006000600461033c60006102c0515af161151a573d600060003e3d6000fd5b61032060006014818352015b610300516102e051116116cf576102c05160e0526102e0516101005261154d610360611221565b610360516103405263d1febfb96103e052610340516104005260806103e060246103fc6102c0515afa611585573d600060003e3d6000fd5b607f3d1115611bc5576103e080518060801d81607f1d18611bc5576103605260208101518060801d81607f1d18611bc5576103805260408101516103a05260608101516103c0525060006103e0526103a0516102e0511115611604576102e0516103a051808210611bc5578082039050905080607f1c611bc5576103e0525b61036051610380516103e0518082028060801d81607f1d18611bc557905090508082038060801d81607f1d18611bc557905090506104005260006104005112611678576104005160008112611bc55760016102e05166038d7ea4c68000811015611bc5570266038d7ea4c6800a01556116a3565b600060016102e05166038d7ea4c68000811015611bc5570266038d7ea4c6800a01556116a3566116cf565b6102e0805162093a808181830110611bc557808201905090508152508151600101808352811415611526575b50506102e051600255565b6040366103603763010ae7576103c052610300516103e05260206103c060246103dc610320515afa611711573d600060003e3d6000fd5b601f3d1115611bc5576103c0516103a0526001546103c0526103a05161175757600081526000602082015260006040820152600060608201526000608082015250611bc3565b60036103005160a0526080526040608020546103e0526103e051156117915760046103005160a052608052604060802054610360526117c4565b6103205160e05261030051610100526103c051610120526103a051610140526117bb61040061137a565b61040051610360525b610360516117d3576001610360525b6328d09d4761048052610300516104a052610360516104c0526080610480604461049c610320515afa61180b573d600060003e3d6000fd5b607f3d1115611bc55761048080518060801d81607f1d18611bc5576104005260208101518060801d81607f1d18611bc55761042052604081015161044052606081015161046052506103e0516118ab576104405162093a808181830110611bc557808201905090506001808210611bc5578082039050905062093a808082049050905062093a80808202821582848304141715611bc557905090506103e0525b610340516103e051106118de57600081526000602082015260006040820152600060608201526000608082015250611bc3565b6103c0516103e05110156118f5576103c0516103e0525b6080366104803761050060006032818352015b610340516103e0511061191a57611b68565b610440516103e051101561192f57600061193a565b6103a0516103605111155b611a84576103e0516104c051808210611bc5578082039050905080607f1c611bc5576105205260006105405261048051610520516104a0518082028060801d81607f1d18611bc557905090508082038060801d81607f1d18611bc557905090506105605260006105605113156119bb576105605160008112611bc557610540525b61054051156119cb5760006119d5565b6103a05161036051115b156119df57611b68565b6000610540511115611a635761038080516105405160016103e05166038d7ea4c68000811015611bc5570260060154808202821582848304141715611bc5579050905060016103e05166038d7ea4c68000811015611bc5570266038d7ea4c6800a0154808015611bc5578204905090508181830110611bc557808201905090508152505b6103e0805162093a808181830110611bc55780820190509050815250611b58565b610360805160018181830110611bc557808201905090508152506104005161048052610420516104a052610440516104c052610460516104e0526103a0516103605111611b50576328d09d4761052052610300516105405261036051610560526080610520604461053c610320515afa611b03573d600060003e3d6000fd5b607f3d1115611bc55761052080518060801d81607f1d18611bc5576104005260208101518060801d81607f1d18611bc5576104205260408101516104405260608101516104605250611b58565b608036610400375b8151600101808352811415611908575b50506103a051610360516001808210611bc55780820390509050808211611b8f5781611b91565b805b90509050610360526103805181526103605160208201526103e05160408201526103a051606082015260016080820152505b565b600080fd5b6100f0611cba036100f06000396100f0611cba036000f35b600080fd"
}