{
  "address": "0x34Ef2Cc892a88415e9f02b91BfA9c91fC0bE6bD4",
  "abi": [
    {
      "anonymous": false,
      "inputs": [
        {
          "indexed": true,
          "internalType": "address",
          "name": "owner",
          "type": "address"
        },
        {
          "indexed": true,
          "internalType": "address",
          "name": "spender",
          "type": "address"
        },
        {
          "indexed": false,
          "internalType": "uint256",
          "name": "value",
          "type": "uint256"
        }
      ],
      "name": "Approval",
      "type": "event"
    },
    {
      "anonymous": false,
      "inputs": [
        {
          "indexed": true,
          "internalType": "address",
          "name": "delegator",
          "type": "address"
        },
        {
          "indexed": true,
          "internalType": "address",
          "name": "fromDelegate",
          "type": "address"
        },
        {
          "indexed": true,
          "internalType": "address",
          "name": "toDelegate",
          "type": "address"
        }
      ],
      "name": "DelegateChanged",
      "type": "event"
    },
    {
      "anonymous": false,
      "inputs": [
        {
          "indexed": true,
          "internalType": "address",
          "name": "delegate",
          "type": "address"
        },
        {
          "indexed": false,
          "internalType": "uint256",
          "name": "previousBalance",
          "type": "uint256"
        },
        {
          "indexed": false,
          "internalType": "uint256",
          "name": "newBalance",
          "type": "uint256"
        }
      ],
      "name": "DelegateVotesChanged",
      "type": "event"
    },
    {
      "anonymous": false,
      "inputs": [
        {
          "indexed": true,
          "internalType": "address",
          "name": "previousOwner",
          "type": "address"
        },
        {
          "indexed": true,
          "internalType": "address",
          "name": "newOwner",
          "type": "address"
        }
      ],
      "name": "OwnershipTransferred",
      "type": "event"
    },
    {
      "anonymous": false,
      "inputs": [
        {
          "indexed": true,
          "internalType": "address",
          "name": "from",
          "type": "address"
        },
        {
          "indexed": true,
          "internalType": "address",
          "name": "to",
          "type": "address"
        },
        {
          "indexed": false,
          "internalType": "uint256",
          "name": "value",
          "type": "uint256"
        }
      ],
      "name": "Transfer",
      "type": "event"
    },
    {
      "inputs": [],
      "name": "DELEGATION_TYPEHASH",
      "outputs": [
        {
          "internalType": "bytes32",
          "name": "",
          "type": "bytes32"
        }
      ],
      "stateMutability": "view",
      "type": "function"
    },
    {
      "inputs": [],
      "name": "DOMAIN_TYPEHASH",
      "outputs": [
        {
          "internalType": "bytes32",
          "name": "",
          "type": "bytes32"
        }
      ],
      "stateMutability": "view",
      "type": "function"
    },
    {
      "inputs": [
        {
          "internalType": "address",
          "name": "owner",
          "type": "address"
        },
        {
          "internalType": "address",
          "name": "spender",
          "type": "address"
        }
      ],
      "name": "allowance",
      "outputs": [
        {
          "internalType": "uint256",
          "name": "",
          "type": "uint256"
        }
      ],
      "stateMutability": "view",
      "type": "function"
    },
    {
      "inputs": [
        {
          "internalType": "address",
          "name": "spender",
          "type": "address"
        },
        {
          "internalType": "uint256",
          "name": "amount",
          "type": "uint256"
        }
      ],
      "name": "approve",
      "outputs": [
        {
          "internalType": "bool",
          "name": "",
          "type": "bool"
        }
      ],
      "stateMutability": "nonpayable",
      "type": "function"
    },
    {
      "inputs": [
        {
          "internalType": "address",
          "name": "account",
          "type": "address"
        }
      ],
      "name": "balanceOf",
      "outputs": [
        {
          "internalType": "uint256",
          "name": "",
          "type": "uint256"
        }
      ],
      "stateMutability": "view",
      "type": "function"
    },
    {
      "inputs": [
        {
          "internalType": "address",
          "name": "",
          "type": "address"
        },
        {
          "internalType": "uint32",
          "name": "",
          "type": "uint32"
        }
      ],
      "name": "checkpoints",
      "outputs": [
        {
          "internalType": "uint32",
          "name": "fromBlock",
          "type": "uint32"
        },
        {
          "internalType": "uint256",
          "name": "votes",
          "type": "uint256"
        }
      ],
      "stateMutability": "view",
      "type": "function"
    },
    {
      "inputs": [],
      "name": "decimals",
      "outputs": [
        {
          "internalType": "uint8",
          "name": "",
          "type": "uint8"
        }
      ],
      "stateMutability": "view",
      "type": "function"
    },
    {
      "inputs": [
        {
          "internalType": "address",
          "name": "spender",
          "type": "address"
        },
        {
          "internalType": "uint256",
          "name": "subtractedValue",
          "type": "uint256"
        }
      ],
      "name": "decreaseAllowance",
      "outputs": [
        {
          "internalType": "bool",
          "name": "",
          "type": "bool"
        }
      ],
      "stateMutability": "nonpayable",
      "type": "function"
    },
    {
      "inputs": [
        {
          "internalType": "address",
          "name": "delegatee",
          "type": "address"
        }
      ],
      "name": "delegate",
      "outputs": [],
      "stateMutability": "nonpayable",
      "type": "function"
    },
    {
      "inputs": [
        {
          "internalType": "address",
          "name": "delegatee",
          "type": "address"
        },
        {
          "internalType": "uint256",
          "name": "nonce",
          "type": "uint256"
        },
        {
          "internalType": "uint256",
          "name": "expiry",
          "type": "uint256"
        },
        {
          "internalType": "uint8",
          "name": "v",
          "type": "uint8"
        },
        {
          "internalType": "bytes32",
          "name": "r",
          "type": "bytes32"
        },
        {
          "internalType": "bytes32",
          "name": "s",
          "type": "bytes32"
        }
      ],
      "name": "delegateBySig",
      "outputs": [],
      "stateMutability": "nonpayable",
      "type": "function"
    },
    {
      "inputs": [
        {
          "internalType": "address",
          "name": "delegator",
          "type": "address"
        }
      ],
      "name": "delegates",
      "outputs": [
        {
          "internalType": "address",
          "name": "",
          "type": "address"
        }
      ],
      "stateMutability": "view",
      "type": "function"
    },
    {
      "inputs": [
        {
          "internalType": "address",
          "name": "account",
          "type": "address"
        }
      ],
      "name": "getCurrentVotes",
      "outputs": [
        {
          "internalType": "uint256",
          "name": "",
          "type": "uint256"
        }
      ],
      "stateMutability": "view",
      "type": "function"
    },
    {
      "inputs": [
        {
          "internalType": "address",
          "name": "account",
          "type": "address"
        },
        {
          "internalType": "uint256",
          "name": "blockNumber",
          "type": "uint256"
        }
      ],
      "name": "getPriorVotes",
      "outputs": [
        {
          "internalType": "uint256",
          "name": "",
          "type": "uint256"
        }
      ],
      "stateMutability": "view",
      "type": "function"
    },
    {
      "inputs": [
        {
          "internalType": "address",
          "name": "spender",
          "type": "address"
        },
        {
          "internalType": "uint256",
          "name": "addedValue",
          "type": "uint256"
        }
      ],
      "name": "increaseAllowance",
      "outputs": [
        {
          "internalType": "bool",
          "name": "",
          "type": "bool"
        }
      ],
      "stateMutability": "nonpayable",
      "type": "function"
    },
    {
      "inputs": [],
      "name": "maxSupply",
      "outputs": [
        {
          "internalType": "uint256",
          "name": "",
          "type": "uint256"
        }
      ],
      "stateMutability": "view",
      "type": "function"
    },
    {
      "inputs": [
        {
          "internalType": "address",
          "name": "_to",
          "type": "address"
        },
        {
          "internalType": "uint256",
          "name": "_amount",
          "type": "uint256"
        }
      ],
      "name": "mint",
      "outputs": [],
      "stateMutability": "nonpayable",
      "type": "function"
    },
    {
      "inputs": [],
      "name": "name",
      "outputs": [
        {
          "internalType": "string",
          "name": "",
          "type": "string"
        }
      ],
      "stateMutability": "view",
      "type": "function"
    },
    {
      "inputs": [
        {
          "internalType": "address",
          "name": "",
          "type": "address"
        }
      ],
      "name": "nonces",
      "outputs": [
        {
          "internalType": "uint256",
          "name": "",
          "type": "uint256"
        }
      ],
      "stateMutability": "view",
      "type": "function"
    },
    {
      "inputs": [
        {
          "internalType": "address",
          "name": "",
          "type": "address"
        }
      ],
      "name": "numCheckpoints",
      "outputs": [
        {
          "internalType": "uint32",
          "name": "",
          "type": "uint32"
        }
      ],
      "stateMutability": "view",
      "type": "function"
    },
    {
      "inputs": [],
      "name": "owner",
      "outputs": [
        {
          "internalType": "address",
          "name": "",
          "type": "address"
        }
      ],
      "stateMutability": "view",
      "type": "function"
    },
    {
      "inputs": [],
      "name": "renounceOwnership",
      "outputs": [],
      "stateMutability": "nonpayable",
      "type": "function"
    },
    {
      "inputs": [],
      "name": "symbol",
      "outputs": [
        {
          "internalType": "string",
          "name": "",
          "type": "string"
        }
      ],
      "stateMutability": "view",
      "type": "function"
    },
    {
      "inputs": [],
      "name": "totalSupply",
      "outputs": [
        {
          "internalType": "uint256",
          "name": "",
          "type": "uint256"
        }
      ],
      "stateMutability": "view",
      "type": "function"
    },
    {
      "inputs": [
        {
          "internalType": "address",
          "name": "dst",
          "type": "address"
        },
        {
          "internalType": "uint256",
          "name": "rawAmount",
          "type": "uint256"
        }
      ],
      "name": "transfer",
      "outputs": [
        {
          "internalType": "bool",
          "name": "",
          "type": "bool"
        }
      ],
      "stateMutability": "nonpayable",
      "type": "function"
    },
    {
      "inputs": [
        {
          "internalType": "address",
          "name": "src",
          "type": "address"
        },
        {
          "internalType": "address",
          "name": "dst",
          "type": "address"
        },
        {
          "internalType": "uint256",
          "name": "rawAmount",
          "type": "uint256"
        }
      ],
      "name": "transferFrom",
      "outputs": [
        {
          "internalType": "bool",
          "name": "",
          "type": "bool"
        }
      ],
      "stateMutability": "nonpayable",
      "type": "function"
    },
    {
      "inputs": [
        {
          "internalType": "address",
          "name": "newOwner",
          "type": "address"
        }
      ],
      "name": "transferOwnership",
      "outputs": [],
      "stateMutability": "nonpayable",
      "type": "function"
    }
  ],
  "transactionHash": "0x5eae93025d4448ce1ee4d1c328b05f6bbd8f03a0c86751cdf3487ff4f94ccb6d",
  "args": [],
  "solcInputHash": "3e2491e8fcc709c94660015f0c69904a",
  "bytecode": "0x60806040526b204fce5e3e250261100000006006553480156200002157600080fd5b5060408051808201825260098152682b37b63a2a37b5b2b760b91b6020808301918252835180850190945260048452631593d31560e21b9084015281519192916200006f9160039162000101565b5080516200008590600490602084019062000101565b50506005805460ff19166012179055506000620000a1620000fd565b60058054610100600160a81b0319166101006001600160a01b03841690810291909117909155604051919250906000907f8be0079c531659141344cd1fd0a4f28419497f9722a3daafe3b4186f6b6457e0908290a3506200019d565b3390565b828054600181600116156101000203166002900490600052602060002090601f016020900481019282601f106200014457805160ff191683800117855562000174565b8280016001018555821562000174579182015b828111156200017457825182559160200191906001019062000157565b506200018292915062000186565b5090565b5b8082111562000182576000815560010162000187565b611c3380620001ad6000396000f3fe608060405234801561001057600080fd5b506004361061018e5760003560e01c8063782d6fe1116100de578063b4b5ea5711610097578063dd62ed3e11610071578063dd62ed3e14610524578063e7a324dc14610552578063f1127ed81461055a578063f2fde38b146105ac5761018e565b8063b4b5ea57146104af578063c3cda520146104d5578063d5abeb011461051c5761018e565b8063782d6fe1146103f55780637ecebe00146104215780638da5cb5b1461044757806395d89b411461044f578063a457c2d714610457578063a9059cbb146104835761018e565b8063395093511161014b5780635c19a95c116101255780635c19a95c146103625780636fcfff451461038857806370a08231146103c7578063715018a6146103ed5761018e565b806339509351146102c657806340c10f19146102f2578063587cde1e146103205761018e565b806306fdde0314610193578063095ea7b31461021057806318160ddd1461025057806320606b701461026a57806323b872dd14610272578063313ce567146102a8575b600080fd5b61019b6105d2565b6040805160208082528351818301528351919283929083019185019080838360005b838110156101d55781810151838201526020016101bd565b50505050905090810190601f1680156102025780820380516001836020036101000a031916815260200191505b509250505060405180910390f35b61023c6004803603604081101561022657600080fd5b506001600160a01b038135169060200135610668565b604080519115158252519081900360200190f35b610258610686565b60408051918252519081900360200190f35b61025861068c565b61023c6004803603606081101561028857600080fd5b506001600160a01b038135811691602081013590911690604001356106b0565b6102b06106fa565b6040805160ff9092168252519081900360200190f35b61023c600480360360408110156102dc57600080fd5b506001600160a01b038135169060200135610703565b61031e6004803603604081101561030857600080fd5b506001600160a01b038135169060200135610756565b005b6103466004803603602081101561033657600080fd5b50356001600160a01b031661084f565b604080516001600160a01b039092168252519081900360200190f35b61031e6004803603602081101561037857600080fd5b50356001600160a01b031661086d565b6103ae6004803603602081101561039e57600080fd5b50356001600160a01b031661087a565b6040805163ffffffff9092168252519081900360200190f35b610258600480360360208110156103dd57600080fd5b50356001600160a01b0316610892565b61031e6108ad565b6102586004803603604081101561040b57600080fd5b506001600160a01b038135169060200135610971565b6102586004803603602081101561043757600080fd5b50356001600160a01b0316610b79565b610346610b8b565b61019b610b9f565b61023c6004803603604081101561046d57600080fd5b506001600160a01b038135169060200135610c00565b61023c6004803603604081101561049957600080fd5b506001600160a01b038135169060200135610c68565b610258600480360360208110156104c557600080fd5b50356001600160a01b0316610ca6565b61031e600480360360c08110156104eb57600080fd5b506001600160a01b038135169060208101359060408101359060ff6060820135169060808101359060a00135610d0a565b610258610f7d565b6102586004803603604081101561053a57600080fd5b506001600160a01b0381358116916020013516610f83565b610258610fae565b61058c6004803603604081101561057057600080fd5b5080356001600160a01b0316906020013563ffffffff16610fd2565b6040805163ffffffff909316835260208301919091528051918290030190f35b61031e600480360360208110156105c257600080fd5b50356001600160a01b0316610fff565b60038054604080516020601f600260001961010060018816150201909516949094049384018190048102820181019092528281526060939092909183018282801561065e5780601f106106335761010080835404028352916020019161065e565b820191906000526020600020905b81548152906001019060200180831161064157829003601f168201915b5050505050905090565b600061067c61067561111f565b8484611123565b5060015b92915050565b60025490565b7f8cad95687ba82c2ce50e74f7b754645e5117c3a5bec8151c0726d5857980a86681565b60006106bd84848461120f565b506001600160a01b038085166000908152600760205260408082205486841683529120546106f092918216911684611287565b5060019392505050565b60055460ff1690565b600061067c61071061111f565b84610751856001600061072161111f565b6001600160a01b03908116825260208083019390935260409182016000908120918c1681529252902054906113c9565b611123565b61075e61111f565b6001600160a01b031661076f610b8b565b6001600160a01b0316146107ca576040805162461bcd60e51b815260206004820181905260248201527f4f776e61626c653a2063616c6c6572206973206e6f7420746865206f776e6572604482015290519081900360640190fd5b6006546107df826107d9610686565b906113c9565b111561081c5760405162461bcd60e51b8152600401808060200182810382526024815260200180611ac46024913960400191505060405180910390fd5b6108268282611423565b6001600160a01b0380831660009081526007602052604081205461084b921683611287565b5050565b6001600160a01b039081166000908152600760205260409020541690565b6108773382611513565b50565b60096020526000908152604090205463ffffffff1681565b6001600160a01b031660009081526020819052604090205490565b6108b561111f565b6001600160a01b03166108c6610b8b565b6001600160a01b031614610921576040805162461bcd60e51b815260206004820181905260248201527f4f776e61626c653a2063616c6c6572206973206e6f7420746865206f776e6572604482015290519081900360640190fd5b60055460405160009161010090046001600160a01b0316907f8be0079c531659141344cd1fd0a4f28419497f9722a3daafe3b4186f6b6457e0908390a360058054610100600160a81b0319169055565b60004382106109b15760405162461bcd60e51b8152600401808060200182810382526027815260200180611a0d6027913960400191505060405180910390fd5b6001600160a01b03831660009081526009602052604090205463ffffffff16806109df576000915050610680565b6001600160a01b038416600090815260086020908152604080832063ffffffff600019860181168552925290912054168310610a4e576001600160a01b03841660009081526008602090815260408083206000199490940163ffffffff16835292905220600101549050610680565b6001600160a01b038416600090815260086020908152604080832083805290915290205463ffffffff16831015610a89576000915050610680565b600060001982015b8163ffffffff168163ffffffff161115610b4257600282820363ffffffff16048103610abb6119d2565b506001600160a01b038716600090815260086020908152604080832063ffffffff808616855290835292819020815180830190925280549093168082526001909301549181019190915290871415610b1d576020015194506106809350505050565b805163ffffffff16871115610b3457819350610b3b565b6001820392505b5050610a91565b506001600160a01b038516600090815260086020908152604080832063ffffffff9094168352929052206001015491505092915050565b600a6020526000908152604090205481565b60055461010090046001600160a01b031690565b60048054604080516020601f600260001961010060018816150201909516949094049384018190048102820181019092528281526060939092909183018282801561065e5780601f106106335761010080835404028352916020019161065e565b600061067c610c0d61111f565b8461075185604051806060016040528060258152602001611bd96025913960016000610c3761111f565b6001600160a01b03908116825260208083019390935260409182016000908120918d168152925290205491906115a8565b6000610c74838361163f565b5033600090815260076020526040808220546001600160a01b038681168452919092205461067c928216911684611287565b6001600160a01b03811660009081526009602052604081205463ffffffff1680610cd1576000610d03565b6001600160a01b038316600090815260086020908152604080832063ffffffff60001986011684529091529020600101545b9392505050565b60007f8cad95687ba82c2ce50e74f7b754645e5117c3a5bec8151c0726d5857980a866610d356105d2565b80519060200120610d44611653565b60408051602080820195909552808201939093526060830191909152306080808401919091528151808403909101815260a0830182528051908401207fe48329057bfd03d55e49b547132e39cffd9c1820ad7b9d4c5307691425d15adf60c08401526001600160a01b038b1660e084015261010083018a90526101208084018a9052825180850390910181526101408401835280519085012061190160f01b6101608501526101628401829052610182808501829052835180860390910181526101a285018085528151918701919091206000918290526101c2860180865281905260ff8b166101e287015261020286018a90526102228601899052935192965090949293909260019261024280840193601f198301929081900390910190855afa158015610e77573d6000803e3d6000fd5b5050604051601f1901519150506001600160a01b038116610ec95760405162461bcd60e51b8152600401808060200182810382526026815260200180611ae86026913960400191505060405180910390fd5b6001600160a01b0381166000908152600a602052604090208054600181019091558914610f275760405162461bcd60e51b8152600401808060200182810382526022815260200180611a7c6022913960400191505060405180910390fd5b87421115610f665760405162461bcd60e51b8152600401808060200182810382526026815260200180611b5b6026913960400191505060405180910390fd5b610f70818b611513565b505050505b505050505050565b60065481565b6001600160a01b03918216600090815260016020908152604080832093909416825291909152205490565b7fe48329057bfd03d55e49b547132e39cffd9c1820ad7b9d4c5307691425d15adf81565b60086020908152600092835260408084209091529082529020805460019091015463ffffffff9091169082565b61100761111f565b6001600160a01b0316611018610b8b565b6001600160a01b031614611073576040805162461bcd60e51b815260206004820181905260248201527f4f776e61626c653a2063616c6c6572206973206e6f7420746865206f776e6572604482015290519081900360640190fd5b6001600160a01b0381166110b85760405162461bcd60e51b8152600401808060200182810382526026815260200180611a346026913960400191505060405180910390fd5b6005546040516001600160a01b0380841692610100900416907f8be0079c531659141344cd1fd0a4f28419497f9722a3daafe3b4186f6b6457e090600090a3600580546001600160a01b0390921661010002610100600160a81b0319909216919091179055565b3390565b6001600160a01b0383166111685760405162461bcd60e51b8152600401808060200182810382526024815260200180611b816024913960400191505060405180910390fd5b6001600160a01b0382166111ad5760405162461bcd60e51b8152600401808060200182810382526022815260200180611a5a6022913960400191505060405180910390fd5b6001600160a01b03808416600081815260016020908152604080832094871680845294825291829020859055815185815291517f8c5be1e5ebec7d5bd14f71427d1e84f3dd0314c0f7b2291e5b200ac8c7c3b9259281900390910190a3505050565b600061121c848484611657565b6106f08461122861111f565b61075185604051806060016040528060288152602001611b0e602891396001600160a01b038a1660009081526001602052604081209061126661111f565b6001600160a01b0316815260208101919091526040016000205491906115a8565b816001600160a01b0316836001600160a01b0316141580156112a95750600081115b156113c4576001600160a01b0383161561133b576001600160a01b03831660009081526009602052604081205463ffffffff1690816112e957600061131b565b6001600160a01b038516600090815260086020908152604080832063ffffffff60001987011684529091529020600101545b9050600061132982856117b2565b90506113378684848461180f565b5050505b6001600160a01b038216156113c4576001600160a01b03821660009081526009602052604081205463ffffffff1690816113765760006113a8565b6001600160a01b038416600090815260086020908152604080832063ffffffff60001987011684529091529020600101545b905060006113b682856113c9565b9050610f758584848461180f565b505050565b600082820183811015610d03576040805162461bcd60e51b815260206004820152601b60248201527f536166654d6174683a206164646974696f6e206f766572666c6f770000000000604482015290519081900360640190fd5b6001600160a01b03821661147e576040805162461bcd60e51b815260206004820152601f60248201527f45524332303a206d696e7420746f20746865207a65726f206164647265737300604482015290519081900360640190fd5b61148a600083836113c4565b60025461149790826113c9565b6002556001600160a01b0382166000908152602081905260409020546114bd90826113c9565b6001600160a01b0383166000818152602081815260408083209490945583518581529351929391927fddf252ad1be2c89b69c2b068fc378daa952ba7f163c4a11628f55a4df523b3ef9281900390910190a35050565b6001600160a01b038083166000908152600760205260408120549091169061153a84610892565b6001600160a01b0385811660008181526007602052604080822080546001600160a01b031916898616908117909155905194955093928616927f3134e8a2e6d97e929a7e54011ea5485d7d196dd5f0ba4d4ef95803e8e3fc257f9190a46115a2828483611287565b50505050565b600081848411156116375760405162461bcd60e51b81526004018080602001828103825283818151815260200191508051906020019080838360005b838110156115fc5781810151838201526020016115e4565b50505050905090810190601f1680156116295780820380516001836020036101000a031916815260200191505b509250505060405180910390fd5b505050900390565b600061067c61164c61111f565b8484611657565b4690565b6001600160a01b03831661169c5760405162461bcd60e51b8152600401808060200182810382526025815260200180611b366025913960400191505060405180910390fd5b6001600160a01b0382166116e15760405162461bcd60e51b81526004018080602001828103825260238152602001806119ea6023913960400191505060405180910390fd5b6116ec8383836113c4565b61172981604051806060016040528060268152602001611a9e602691396001600160a01b03861660009081526020819052604090205491906115a8565b6001600160a01b03808516600090815260208190526040808220939093559084168152205461175890826113c9565b6001600160a01b038084166000818152602081815260409182902094909455805185815290519193928716927fddf252ad1be2c89b69c2b068fc378daa952ba7f163c4a11628f55a4df523b3ef92918290030190a3505050565b600082821115611809576040805162461bcd60e51b815260206004820152601e60248201527f536166654d6174683a207375627472616374696f6e206f766572666c6f770000604482015290519081900360640190fd5b50900390565b600061183343604051806060016040528060348152602001611ba560349139611974565b905060008463ffffffff1611801561187c57506001600160a01b038516600090815260086020908152604080832063ffffffff6000198901811685529252909120548282169116145b156118b9576001600160a01b038516600090815260086020908152604080832063ffffffff6000198901168452909152902060010182905561192a565b60408051808201825263ffffffff808416825260208083018681526001600160a01b038a166000818152600884528681208b8616825284528681209551865490861663ffffffff19918216178755925160019687015590815260099092529390208054928801909116919092161790555b604080518481526020810184905281516001600160a01b038816927fdec2bacdd2f05b59de34da9b523dff8be42e5e38e818c82fdb0bae774387a724928290030190a25050505050565b60008164010000000084106119ca5760405162461bcd60e51b81526020600482018181528351602484015283519092839260449091019190850190808383600083156115fc5781810151838201526020016115e4565b509192915050565b60408051808201909152600080825260208201529056fe45524332303a207472616e7366657220746f20746865207a65726f2061646472657373564f4c543a3a6765745072696f72566f7465733a206e6f74207965742064657465726d696e65644f776e61626c653a206e6577206f776e657220697320746865207a65726f206164647265737345524332303a20617070726f766520746f20746865207a65726f2061646472657373564f4c543a3a64656c656761746542795369673a20696e76616c6964206e6f6e636545524332303a207472616e7366657220616d6f756e7420657863656564732062616c616e6365564f4c543a3a6d696e743a2063616e6e6f7420657863656564206d617820737570706c79564f4c543a3a64656c656761746542795369673a20696e76616c6964207369676e617475726545524332303a207472616e7366657220616d6f756e74206578636565647320616c6c6f77616e636545524332303a207472616e736665722066726f6d20746865207a65726f2061646472657373564f4c543a3a64656c656761746542795369673a207369676e6174757265206578706972656445524332303a20617070726f76652066726f6d20746865207a65726f2061646472657373564f4c543a3a5f7772697465436865636b706f696e743a20626c6f636b206e756d6265722065786365656473203332206269747345524332303a2064656372656173656420616c6c6f77616e63652062656c6f77207a65726fa264697066735822122033f9239ac9f4a8ab7b6aa345858dfcf553dc9ba13a854b1d88db2a0709a2578f64736f6c634300060c0033",
  "devdoc": {
    "kind": "dev",
    "methods": {
      "allowance(address,address)": {
        "details": "See {IERC20-allowance}."
      },
      "approve(address,uint256)": {
        "details": "See {IERC20-approve}. Requirements: - `spender` cannot be the zero address."
      },
      "balanceOf(address)": {
        "details": "See {IERC20-balanceOf}."
      },
      "decimals()": {
        "details": "Returns the number of decimals used to get its user representation. For example, if `decimals` equals `2`, a balance of `505` tokens should be displayed to a user as `5,05` (`505 / 10 ** 2`). Tokens usually opt for a value of 18, imitating the relationship between Ether and Wei. This is the value {ERC20} uses, unless {_setupDecimals} is called. NOTE: This information is only used for _display_ purposes: it in no way affects any of the arithmetic of the contract, including {IERC20-balanceOf} and {IERC20-transfer}."
      },
      "decreaseAllowance(address,uint256)": {
        "details": "Atomically decreases the allowance granted to `spender` by the caller. This is an alternative to {approve} that can be used as a mitigation for problems described in {IERC20-approve}. Emits an {Approval} event indicating the updated allowance. Requirements: - `spender` cannot be the zero address. - `spender` must have allowance for the caller of at least `subtractedValue`."
      },
      "delegate(address)": {
        "params": {
          "delegatee": "The address to delegate votes to"
        }
      },
      "delegateBySig(address,uint256,uint256,uint8,bytes32,bytes32)": {
        "params": {
          "delegatee": "The address to delegate votes to",
          "expiry": "The time at which to expire the signature",
          "nonce": "The contract state required to match the signature",
          "r": "Half of the ECDSA signature pair",
          "s": "Half of the ECDSA signature pair",
          "v": "The recovery byte of the signature"
        }
      },
      "delegates(address)": {
        "params": {
          "delegator": "The address to get delegatee for"
        }
      },
      "getCurrentVotes(address)": {
        "params": {
          "account": "The address to get votes balance"
        },
        "returns": {
          "_0": "The number of current votes for `account`"
        }
      },
      "getPriorVotes(address,uint256)": {
        "details": "Block number must be a finalized block or else this function will revert to prevent misinformation.",
        "params": {
          "account": "The address of the account to check",
          "blockNumber": "The block number to get the vote balance at"
        },
        "returns": {
          "_0": "The number of votes the account had as of the given block"
        }
      },
      "increaseAllowance(address,uint256)": {
        "details": "Atomically increases the allowance granted to `spender` by the caller. This is an alternative to {approve} that can be used as a mitigation for problems described in {IERC20-approve}. Emits an {Approval} event indicating the updated allowance. Requirements: - `spender` cannot be the zero address."
      },
      "name()": {
        "details": "Returns the name of the token."
      },
      "owner()": {
        "details": "Returns the address of the current owner."
      },
      "renounceOwnership()": {
        "details": "Leaves the contract without owner. It will not be possible to call `onlyOwner` functions anymore. Can only be called by the current owner. NOTE: Renouncing ownership will leave the contract without an owner, thereby removing any functionality that is only available to the owner."
      },
      "symbol()": {
        "details": "Returns the symbol of the token, usually a shorter version of the name."
      },
      "totalSupply()": {
        "details": "See {IERC20-totalSupply}."
      },
      "transfer(address,uint256)": {
        "params": {
          "dst": "The address of the destination account",
          "rawAmount": "The number of tokens to transfer"
        },
        "returns": {
          "_0": "Whether or not the transfer succeeded"
        }
      },
      "transferFrom(address,address,uint256)": {
        "params": {
          "dst": "The address of the destination account",
          "rawAmount": "The number of tokens to transfer",
          "src": "The address of the source account"
        },
        "returns": {
          "_0": "Whether or not the transfer succeeded"
        }
      },
      "transferOwnership(address)": {
        "details": "Transfers ownership of the contract to a new account (`newOwner`). Can only be called by the current owner."
      }
    },
    "version": 1
  },
  "userdoc": {
    "events": {
      "DelegateChanged(address,address,address)": {
        "notice": "An event thats emitted when an account changes its delegate"
      },
      "DelegateVotesChanged(address,uint256,uint256)": {
        "notice": "An event thats emitted when a delegate account's vote balance changes"
      }
    },
    "kind": "user",
    "methods": {
      "DELEGATION_TYPEHASH()": {
        "notice": "The EIP-712 typehash for the delegation struct used by the contract"
      },
      "DOMAIN_TYPEHASH()": {
        "notice": "The EIP-712 typehash for the contract's domain"
      },
      "checkpoints(address,uint32)": {
        "notice": "A record of votes checkpoints for each account, by index"
      },
      "delegate(address)": {
        "notice": "Delegate votes from `msg.sender` to `delegatee`"
      },
      "delegateBySig(address,uint256,uint256,uint8,bytes32,bytes32)": {
        "notice": "Delegates votes from signatory to `delegatee`"
      },
      "delegates(address)": {
        "notice": "Delegate votes from `msg.sender` to `delegatee`"
      },
      "getCurrentVotes(address)": {
        "notice": "Gets the current votes balance for `account`"
      },
      "getPriorVotes(address,uint256)": {
        "notice": "Determine the prior number of votes for an account as of a block number"
      },
      "maxSupply()": {
        "notice": "Total number of tokens"
      },
      "mint(address,uint256)": {
        "notice": "Creates `_amount` token to `_to`. Must only be called by the owner."
      },
      "nonces(address)": {
        "notice": "A record of states for signing / validating signatures"
      },
      "numCheckpoints(address)": {
        "notice": "The number of checkpoints for each account"
      },
      "transfer(address,uint256)": {
        "notice": "Transfer `rawAmount` tokens from `msg.sender` to `dst`"
      },
      "transferFrom(address,address,uint256)": {
        "notice": "Transfer `rawAmount` tokens from `src` to `dst`"
      }
    },
    "version": 1
  },
  "storageLayout": {
    "storage": [
      {
        "astId": 727,
        "contract": "contracts/VoltToken.sol:VoltToken",
        "label": "_balances",
        "offset": 0,
        "slot": "0",
        "type": "t_mapping(t_address,t_uint256)"
      },
      {
        "astId": 733,
        "contract": "contracts/VoltToken.sol:VoltToken",
        "label": "_allowances",
        "offset": 0,
        "slot": "1",
        "type": "t_mapping(t_address,t_mapping(t_address,t_uint256))"
      },
      {
        "astId": 735,
        "contract": "contracts/VoltToken.sol:VoltToken",
        "label": "_totalSupply",
        "offset": 0,
        "slot": "2",
        "type": "t_uint256"
      },
      {
        "astId": 737,
        "contract": "contracts/VoltToken.sol:VoltToken",
        "label": "_name",
        "offset": 0,
        "slot": "3",
        "type": "t_string_storage"
      },
      {
        "astId": 739,
        "contract": "contracts/VoltToken.sol:VoltToken",
        "label": "_symbol",
        "offset": 0,
        "slot": "4",
        "type": "t_string_storage"
      },
      {
        "astId": 741,
        "contract": "contracts/VoltToken.sol:VoltToken",
        "label": "_decimals",
        "offset": 0,
        "slot": "5",
        "type": "t_uint8"
      },
      {
        "astId": 253,
        "contract": "contracts/VoltToken.sol:VoltToken",
        "label": "_owner",
        "offset": 1,
        "slot": "5",
        "type": "t_address"
      },
      {
        "astId": 7889,
        "contract": "contracts/VoltToken.sol:VoltToken",
        "label": "maxSupply",
        "offset": 0,
        "slot": "6",
        "type": "t_uint256"
      },
      {
        "astId": 7932,
        "contract": "contracts/VoltToken.sol:VoltToken",
        "label": "_delegates",
        "offset": 0,
        "slot": "7",
        "type": "t_mapping(t_address,t_address)"
      },
      {
        "astId": 7944,
        "contract": "contracts/VoltToken.sol:VoltToken",
        "label": "checkpoints",
        "offset": 0,
        "slot": "8",
        "type": "t_mapping(t_address,t_mapping(t_uint32,t_struct(Checkpoint)7937_storage))"
      },
      {
        "astId": 7949,
        "contract": "contracts/VoltToken.sol:VoltToken",
        "label": "numCheckpoints",
        "offset": 0,
        "slot": "9",
        "type": "t_mapping(t_address,t_uint32)"
      },
      {
        "astId": 7966,
        "contract": "contracts/VoltToken.sol:VoltToken",
        "label": "nonces",
        "offset": 0,
        "slot": "10",
        "type": "t_mapping(t_address,t_uint256)"
      }
    ],
    "types": {
      "t_address": {
        "encoding": "inplace",
        "label": "address",
        "numberOfBytes": "20"
      },
      "t_mapping(t_address,t_address)": {
        "encoding": "mapping",
        "key": "t_address",
        "label": "mapping(address => address)",
        "numberOfBytes": "32",
        "value": "t_address"
      },
      "t_mapping(t_address,t_mapping(t_address,t_uint256))": {
        "encoding": "mapping",
        "key": "t_address",
        "label": "mapping(address => mapping(address => uint256))",
        "numberOfBytes": "32",
        "value": "t_mapping(t_address,t_uint256)"
      },
      "t_mapping(t_address,t_mapping(t_uint32,t_struct(Checkpoint)7937_storage))": {
        "encoding": "mapping",
        "key": "t_address",
        "label": "mapping(address => mapping(uint32 => struct VoltToken.Checkpoint))",
        "numberOfBytes": "32",
        "value": "t_mapping(t_uint32,t_struct(Checkpoint)7937_storage)"
      },
      "t_mapping(t_address,t_uint256)": {
        "encoding": "mapping",
        "key": "t_address",
        "label": "mapping(address => uint256)",
        "numberOfBytes": "32",
        "value": "t_uint256"
      },
      "t_mapping(t_address,t_uint32)": {
        "encoding": "mapping",
        "key": "t_address",
        "label": "mapping(address => uint32)",
        "numberOfBytes": "32",
        "value": "t_uint32"
      },
      "t_mapping(t_uint32,t_struct(Checkpoint)7937_storage)": {
        "encoding": "mapping",
        "key": "t_uint32",
        "label": "mapping(uint32 => struct VoltToken.Checkpoint)",
        "numberOfBytes": "32",
        "value": "t_struct(Checkpoint)7937_storage"
      },
      "t_string_storage": {
        "encoding": "bytes",
        "label": "string",
        "numberOfBytes": "32"
      },
      "t_struct(Checkpoint)7937_storage": {
        "encoding": "inplace",
        "label": "struct VoltToken.Checkpoint",
        "members": [
          {
            "astId": 7934,
            "contract": "contracts/VoltToken.sol:VoltToken",
            "label": "fromBlock",
            "offset": 0,
            "slot": "0",
            "type": "t_uint32"
          },
          {
            "astId": 7936,
            "contract": "contracts/VoltToken.sol:VoltToken",
            "label": "votes",
            "offset": 0,
            "slot": "1",
            "type": "t_uint256"
          }
        ],
        "numberOfBytes": "64"
      },
      "t_uint256": {
        "encoding": "inplace",
        "label": "uint256",
        "numberOfBytes": "32"
      },
      "t_uint32": {
        "encoding": "inplace",
        "label": "uint32",
        "numberOfBytes": "4"
      },
      "t_uint8": {
        "encoding": "inplace",
        "label": "uint8",
        "numberOfBytes": "1"
      }
    }
  }
}