{
  "address": "0xCbc0Be5A72E18a4aABAa827739Ad561C71DaC7Cb",
  "abi": [
    {
      "name": "CommitOwnership",
      "inputs": [
        {
          "name": "admin",
          "type": "address",
          "indexed": false
        }
      ],
      "anonymous": false,
      "type": "event"
    },
    {
      "name": "ApplyOwnership",
      "inputs": [
        {
          "name": "admin",
          "type": "address",
          "indexed": false
        }
      ],
      "anonymous": false,
      "type": "event"
    },
    {
      "name": "FundsUnlocked",
      "inputs": [
        {
          "name": "funds_unlocked",
          "type": "bool",
          "indexed": false
        }
      ],
      "anonymous": false,
      "type": "event"
    },
    {
      "name": "Deposit",
      "inputs": [
        {
          "name": "deposit_from",
          "type": "address",
          "indexed": true
        },
        {
          "name": "provider",
          "type": "address",
          "indexed": true
        },
        {
          "name": "value",
          "type": "uint256",
          "indexed": false
        },
        {
          "name": "locktime",
          "type": "uint256",
          "indexed": true
        },
        {
          "name": "type",
          "type": "int128",
          "indexed": false
        },
        {
          "name": "ts",
          "type": "uint256",
          "indexed": false
        }
      ],
      "anonymous": false,
      "type": "event"
    },
    {
      "name": "Withdraw",
      "inputs": [
        {
          "name": "provider",
          "type": "address",
          "indexed": true
        },
        {
          "name": "value",
          "type": "uint256",
          "indexed": false
        },
        {
          "name": "ts",
          "type": "uint256",
          "indexed": false
        }
      ],
      "anonymous": false,
      "type": "event"
    },
    {
      "name": "Supply",
      "inputs": [
        {
          "name": "prevSupply",
          "type": "uint256",
          "indexed": false
        },
        {
          "name": "supply",
          "type": "uint256",
          "indexed": false
        }
      ],
      "anonymous": false,
      "type": "event"
    },
    {
      "name": "PenaltyUpdated",
      "inputs": [
        {
          "name": "new_penalty",
          "type": "uint256",
          "indexed": false
        }
      ],
      "anonymous": false,
      "type": "event"
    },
    {
      "stateMutability": "nonpayable",
      "type": "constructor",
      "inputs": [
        {
          "name": "token_addr",
          "type": "address"
        },
        {
          "name": "_name",
          "type": "string"
        },
        {
          "name": "_symbol",
          "type": "string"
        },
        {
          "name": "_admin",
          "type": "address"
        }
      ],
      "outputs": []
    },
    {
      "stateMutability": "nonpayable",
      "type": "function",
      "name": "set_reward_pool",
      "inputs": [
        {
          "name": "addr",
          "type": "address"
        }
      ],
      "outputs": [],
      "gas": 39816
    },
    {
      "stateMutability": "nonpayable",
      "type": "function",
      "name": "set_max_penalty",
      "inputs": [
        {
          "name": "_max_penalty",
          "type": "uint256"
        }
      ],
      "outputs": [],
      "gas": 39455
    },
    {
      "stateMutability": "nonpayable",
      "type": "function",
      "name": "commit_transfer_ownership",
      "inputs": [
        {
          "name": "addr",
          "type": "address"
        }
      ],
      "outputs": [],
      "gas": 39505
    },
    {
      "stateMutability": "nonpayable",
      "type": "function",
      "name": "apply_transfer_ownership",
      "inputs": [],
      "outputs": [],
      "gas": 41596
    },
    {
      "stateMutability": "nonpayable",
      "type": "function",
      "name": "commit_smart_wallet_checker",
      "inputs": [
        {
          "name": "addr",
          "type": "address"
        }
      ],
      "outputs": [],
      "gas": 37725
    },
    {
      "stateMutability": "nonpayable",
      "type": "function",
      "name": "apply_smart_wallet_checker",
      "inputs": [],
      "outputs": [],
      "gas": 39701
    },
    {
      "stateMutability": "nonpayable",
      "type": "function",
      "name": "set_funds_unlocked",
      "inputs": [
        {
          "name": "_funds_unlocked",
          "type": "bool"
        }
      ],
      "outputs": [],
      "gas": 39625
    },
    {
      "stateMutability": "view",
      "type": "function",
      "name": "get_last_user_slope",
      "inputs": [
        {
          "name": "addr",
          "type": "address"
        }
      ],
      "outputs": [
        {
          "name": "",
          "type": "int128"
        }
      ],
      "gas": 5214
    },
    {
      "stateMutability": "view",
      "type": "function",
      "name": "user_point_history__ts",
      "inputs": [
        {
          "name": "_addr",
          "type": "address"
        },
        {
          "name": "_idx",
          "type": "uint256"
        }
      ],
      "outputs": [
        {
          "name": "",
          "type": "uint256"
        }
      ],
      "gas": 3017
    },
    {
      "stateMutability": "view",
      "type": "function",
      "name": "locked__end",
      "inputs": [
        {
          "name": "_addr",
          "type": "address"
        }
      ],
      "outputs": [
        {
          "name": "",
          "type": "uint256"
        }
      ],
      "gas": 3002
    },
    {
      "stateMutability": "nonpayable",
      "type": "function",
      "name": "checkpoint",
      "inputs": [],
      "outputs": [],
      "gas": 37283430
    },
    {
      "stateMutability": "nonpayable",
      "type": "function",
      "name": "deposit_for",
      "inputs": [
        {
          "name": "_addr",
          "type": "address"
        },
        {
          "name": "_value",
          "type": "uint256"
        }
      ],
      "outputs": [],
      "gas": 37591174
    },
    {
      "stateMutability": "nonpayable",
      "type": "function",
      "name": "create_lock",
      "inputs": [
        {
          "name": "_value",
          "type": "uint256"
        },
        {
          "name": "_unlock_time",
          "type": "uint256"
        }
      ],
      "outputs": [],
      "gas": 37597442
    },
    {
      "stateMutability": "nonpayable",
      "type": "function",
      "name": "increase_amount",
      "inputs": [
        {
          "name": "_value",
          "type": "uint256"
        }
      ],
      "outputs": [],
      "gas": 37590076
    },
    {
      "stateMutability": "nonpayable",
      "type": "function",
      "name": "increase_unlock_time",
      "inputs": [
        {
          "name": "_unlock_time",
          "type": "uint256"
        }
      ],
      "outputs": [],
      "gas": 37597492
    },
    {
      "stateMutability": "nonpayable",
      "type": "function",
      "name": "withdraw",
      "inputs": [],
      "outputs": [],
      "gas": 37468088
    },
    {
      "stateMutability": "nonpayable",
      "type": "function",
      "name": "force_withdraw",
      "inputs": [],
      "outputs": [],
      "gas": 37481331
    },
    {
      "stateMutability": "view",
      "type": "function",
      "name": "balanceOf",
      "inputs": [
        {
          "name": "addr",
          "type": "address"
        }
      ],
      "outputs": [
        {
          "name": "",
          "type": "uint256"
        }
      ],
      "gas": 12780
    },
    {
      "stateMutability": "view",
      "type": "function",
      "name": "balanceOf",
      "inputs": [
        {
          "name": "addr",
          "type": "address"
        },
        {
          "name": "_t",
          "type": "uint256"
        }
      ],
      "outputs": [
        {
          "name": "",
          "type": "uint256"
        }
      ],
      "gas": 12780
    },
    {
      "stateMutability": "view",
      "type": "function",
      "name": "getPriorVotes",
      "inputs": [
        {
          "name": "addr",
          "type": "address"
        },
        {
          "name": "_block",
          "type": "uint256"
        }
      ],
      "outputs": [
        {
          "name": "",
          "type": "uint256"
        }
      ],
      "gas": 796485
    },
    {
      "stateMutability": "view",
      "type": "function",
      "name": "totalSupply",
      "inputs": [],
      "outputs": [
        {
          "name": "",
          "type": "uint256"
        }
      ],
      "gas": 905266
    },
    {
      "stateMutability": "view",
      "type": "function",
      "name": "totalSupply",
      "inputs": [
        {
          "name": "t",
          "type": "uint256"
        }
      ],
      "outputs": [
        {
          "name": "",
          "type": "uint256"
        }
      ],
      "gas": 905266
    },
    {
      "stateMutability": "view",
      "type": "function",
      "name": "totalSupplyAt",
      "inputs": [
        {
          "name": "_block",
          "type": "uint256"
        }
      ],
      "outputs": [
        {
          "name": "",
          "type": "uint256"
        }
      ],
      "gas": 1291183
    },
    {
      "stateMutability": "view",
      "type": "function",
      "name": "calculate_balances_range_threshold",
      "inputs": [
        {
          "name": "_from",
          "type": "uint256"
        },
        {
          "name": "_to",
          "type": "uint256"
        },
        {
          "name": "threshold",
          "type": "uint256"
        },
        {
          "name": "at",
          "type": "uint256"
        }
      ],
      "outputs": [
        {
          "name": "",
          "type": "uint256"
        }
      ],
      "gas": 209031059
    },
    {
      "stateMutability": "view",
      "type": "function",
      "name": "token",
      "inputs": [],
      "outputs": [
        {
          "name": "",
          "type": "address"
        }
      ],
      "gas": 3120
    },
    {
      "stateMutability": "view",
      "type": "function",
      "name": "supply",
      "inputs": [],
      "outputs": [
        {
          "name": "",
          "type": "uint256"
        }
      ],
      "gas": 3150
    },
    {
      "stateMutability": "view",
      "type": "function",
      "name": "locked",
      "inputs": [
        {
          "name": "arg0",
          "type": "address"
        }
      ],
      "outputs": [
        {
          "name": "",
          "type": "tuple",
          "components": [
            {
              "name": "amount",
              "type": "int128"
            },
            {
              "name": "end",
              "type": "uint256"
            }
          ]
        }
      ],
      "gas": 5603
    },
    {
      "stateMutability": "view",
      "type": "function",
      "name": "epoch",
      "inputs": [],
      "outputs": [
        {
          "name": "",
          "type": "uint256"
        }
      ],
      "gas": 3210
    },
    {
      "stateMutability": "view",
      "type": "function",
      "name": "point_history",
      "inputs": [
        {
          "name": "arg0",
          "type": "uint256"
        }
      ],
      "outputs": [
        {
          "name": "",
          "type": "tuple",
          "components": [
            {
              "name": "bias",
              "type": "int128"
            },
            {
              "name": "slope",
              "type": "int128"
            },
            {
              "name": "ts",
              "type": "uint256"
            },
            {
              "name": "blk",
              "type": "uint256"
            }
          ]
        }
      ],
      "gas": 9674
    },
    {
      "stateMutability": "view",
      "type": "function",
      "name": "user_point_history",
      "inputs": [
        {
          "name": "arg0",
          "type": "address"
        },
        {
          "name": "arg1",
          "type": "uint256"
        }
      ],
      "outputs": [
        {
          "name": "",
          "type": "tuple",
          "components": [
            {
              "name": "bias",
              "type": "int128"
            },
            {
              "name": "slope",
              "type": "int128"
            },
            {
              "name": "ts",
              "type": "uint256"
            },
            {
              "name": "blk",
              "type": "uint256"
            }
          ]
        }
      ],
      "gas": 9970
    },
    {
      "stateMutability": "view",
      "type": "function",
      "name": "user_point_epoch",
      "inputs": [
        {
          "name": "arg0",
          "type": "address"
        }
      ],
      "outputs": [
        {
          "name": "",
          "type": "uint256"
        }
      ],
      "gas": 3566
    },
    {
      "stateMutability": "view",
      "type": "function",
      "name": "slope_changes",
      "inputs": [
        {
          "name": "arg0",
          "type": "uint256"
        }
      ],
      "outputs": [
        {
          "name": "",
          "type": "int128"
        }
      ],
      "gas": 3445
    },
    {
      "stateMutability": "view",
      "type": "function",
      "name": "users",
      "inputs": [
        {
          "name": "arg0",
          "type": "uint256"
        }
      ],
      "outputs": [
        {
          "name": "",
          "type": "address"
        }
      ],
      "gas": 3405
    },
    {
      "stateMutability": "view",
      "type": "function",
      "name": "userIndex",
      "inputs": [
        {
          "name": "arg0",
          "type": "address"
        }
      ],
      "outputs": [
        {
          "name": "",
          "type": "uint256"
        }
      ],
      "gas": 3656
    },
    {
      "stateMutability": "view",
      "type": "function",
      "name": "userCnt",
      "inputs": [],
      "outputs": [
        {
          "name": "",
          "type": "uint256"
        }
      ],
      "gas": 3420
    },
    {
      "stateMutability": "view",
      "type": "function",
      "name": "name",
      "inputs": [],
      "outputs": [
        {
          "name": "",
          "type": "string"
        }
      ],
      "gas": 13739
    },
    {
      "stateMutability": "view",
      "type": "function",
      "name": "symbol",
      "inputs": [],
      "outputs": [
        {
          "name": "",
          "type": "string"
        }
      ],
      "gas": 11498
    },
    {
      "stateMutability": "view",
      "type": "function",
      "name": "decimals",
      "inputs": [],
      "outputs": [
        {
          "name": "",
          "type": "uint256"
        }
      ],
      "gas": 3510
    },
    {
      "stateMutability": "view",
      "type": "function",
      "name": "future_smart_wallet_checker",
      "inputs": [],
      "outputs": [
        {
          "name": "",
          "type": "address"
        }
      ],
      "gas": 3540
    },
    {
      "stateMutability": "view",
      "type": "function",
      "name": "smart_wallet_checker",
      "inputs": [],
      "outputs": [
        {
          "name": "",
          "type": "address"
        }
      ],
      "gas": 3570
    },
    {
      "stateMutability": "view",
      "type": "function",
      "name": "admin",
      "inputs": [],
      "outputs": [
        {
          "name": "",
          "type": "address"
        }
      ],
      "gas": 3600
    },
    {
      "stateMutability": "view",
      "type": "function",
      "name": "future_admin",
      "inputs": [],
      "outputs": [
        {
          "name": "",
          "type": "address"
        }
      ],
      "gas": 3630
    },
    {
      "stateMutability": "view",
      "type": "function",
      "name": "is_unlocked",
      "inputs": [],
      "outputs": [
        {
          "name": "",
          "type": "bool"
        }
      ],
      "gas": 3660
    },
    {
      "stateMutability": "view",
      "type": "function",
      "name": "reward_pool",
      "inputs": [],
      "outputs": [
        {
          "name": "",
          "type": "address"
        }
      ],
      "gas": 3690
    },
    {
      "stateMutability": "view",
      "type": "function",
      "name": "max_penalty",
      "inputs": [],
      "outputs": [
        {
          "name": "",
          "type": "uint256"
        }
      ],
      "gas": 3720
    }
  ],
  "transactionHash": "0xf597574298490a82f9536a74e033b686810d111d70817757a26379f3879f092c",
  "args": [
    "0xaB45225DD47f52AC4D836A6c652fe214De10Ac39",
    "Vote Escrow Volt",
    "veVOLT",
    "0x0a9aE19397a699C81e8d0E1B7C893E8cC4A6CEE3"
  ],
  "bytecode": "0x60206133776080396080518060a01c6133725760e0526020602061337701608039608051613377016040602082608039608051116133725780602081608039608051602001808261010039505050602060406133770160803960805161337701602060208260803960805111613372578060208160803960805160200180826101603950505060206060613377016080396080518060a01c613372576101a0526101a0516c050c783ebf218f9e2d631000125560e051600155436008554260075563313ce5676101e05260206101e060046101fc60e0515afa6100e7573d600060003e3d6000fd5b601f3d1115613372576101e0516101c05260ff6101c05111613372576101c0516c050c783ebf218f9e2d6310000f55610100806c050c783ebf218f9e2d6310000a602082510160c060006003818352015b8260c051602002111561014a57610169565b60c05160200285015160c0518501558151600101808352811415610138575b505050505050610160806c050c783ebf218f9e2d6310000d602082510160c060006002818352015b8260c05160200211156101a3576101c2565b60c05160200285015160c0518501558151600101808352811415610191575b50505050505060646c050c783ebf218f9e2d631000165561335a56600436101561000d576124b0565b60046000601c376000513461317757637952889f8118610085576004358060a01c6131775760e0526c050c783ebf218f9e2d63100012543318610051576001610062565b6c050c783ebf218f9e2d6310001554155b1561317757600060e051146131775760e0516c050c783ebf218f9e2d6310001555005b639c4cb62a8118610104576c050c783ebf218f9e2d6310001254331861317757600060043510156100b75760006100bf565b606460043511155b15613177576004356c050c783ebf218f9e2d63100016557fc831f5abc7bc27c011edea988b6e4e573af053efa7cfa703a1878827ec6acc1060043560e052602060e0a1005b636b441a408118610174576004358060a01c6131775760e0526c050c783ebf218f9e2d631000125433186131775760e0516c050c783ebf218f9e2d63100013557f2f56810a6bf40af059b96d3aea4db54081f378029a518390491093a7b67032e960e051610100526020610100a1005b636a1c05ae81186101f2576c050c783ebf218f9e2d63100012543318613177576c050c783ebf218f9e2d631000135460e052600060e051146131775760e0516c050c783ebf218f9e2d63100012557febee2d5739011062cb4f14113f3b36bf0ffe3da5c0568f64189d1012a118910560e051610100526020610100a1005b6357f901e28118610234576004358060a01c6131775760e0526c050c783ebf218f9e2d631000125433186131775760e0516c050c783ebf218f9e2d6310001055005b638e5b490f8118610274576c050c783ebf218f9e2d63100012543318613177576c050c783ebf218f9e2d63100010546c050c783ebf218f9e2d6310001155005b638847b57481186102e4576004358060011c6131775760e0526c050c783ebf218f9e2d631000125433186131775760e0516c050c783ebf218f9e2d63100014557f6f9c7879220530d66ede8422a83c8aabeac4631a7269cbdf3bf8f47f74e5269760e051610100526020610100a1005b637c74a174811861035d576004358060a01c6131775760e0526c050c783eb9b5c840000000000660e05160a052608052604060802054610100526001600461010051633b9aca0081101561317757026c050c783eb9b5c840000000000560e05160a0526080526040608020010154610120526020610120f35b63da020a1881186103b4576004358060a01c6131775760e05260026004602435633b9aca0081101561317757026c050c783eb9b5c840000000000560e05160a0526080526040608020010154610100526020610100f35b63adc6358981186103ec576004358060a01c6131775760e0526001600360e05160a05260805260406080200154610100526020610100f35b63c2c4c5c1811861041457600060e0526040366101003760403661014037610412612673565b005b633a46273e81186105de576004358060a01c613177576106805260005461317757600160005560036106805160a052608052604060802080546106a05260018101546106c05250600060243511156131775760006106a051136104e85760166106e0527f4e6f206578697374696e67206c6f636b20666f756e6400000000000000000000610700526106e0506106e0518061070001818260206001820306601f82010390500336823750506308c379a06106a05260206106c0526106e05160206001820306601f82010390506044016106bcfd5b426106c0511161058e5760246106e0527f43616e6e6f742061646420746f2065787069726564206c6f636b2e2057697468610700527f6472617700000000000000000000000000000000000000000000000000000000610720526106e0506106e0518061070001818260206001820306601f82010390500336823750506308c379a06106a05260206106c0526106e05160206001820306601f82010390506044016106bcfd5b3361048052610680516104a0526024356104c05260006104e05260036106805160a0526080526040608020805461050052600181015461052052506000610540526105d7612d62565b6000600055005b6365fc3873811861094f5760005461317757600160005560243562093a808082049050905062093a8080820282158284830414171561317757905090506106805260033360a052608052604060802080546106a05260018101546106c052506000600435116106be57601a6106e0527f4d757374207374616b65206e6f6e207a65726f20616d6f756e74000000000000610700526106e0506106e0518061070001818260206001820306601f82010390500336823750506308c379a06106a05260206106c0526106e05160206001820306601f82010390506044016106bcfd5b6106a0511561073e5760196106e0527f5769746864726177206f6c6420746f6b656e7320666972737400000000000000610700526106e0506106e0518061070001818260206001820306601f82010390500336823750506308c379a06106a05260206106c0526106e05160206001820306601f82010390506044016106bcfd5b4261068051116107e45760266106e0527f43616e206f6e6c79206c6f636b20756e74696c2074696d6520696e2074686520610700527f6675747572650000000000000000000000000000000000000000000000000000610720526106e0506106e0518061070001818260206001820306601f82010390500336823750506308c379a06106a05260206106c0526106e05160206001820306601f82010390506044016106bcfd5b426303c267008181830110613177578082019050905061068051111561087b57601e6106e0527f566f74696e67206c6f636b2063616e2062652032207965617273206d61780000610700526106e0506106e0518061070001818260206001820306601f82010390500336823750506308c379a06106a05260206106c0526106e05160206001820306601f82010390506044016106bcfd5b4262278d008181830110613177578082019050905061068051101561091157601e6106e0527f566f74696e67206c6f636b2063616e2062652031206d6f6e7468206d696e0000610700526106e0506106e0518061070001818260206001820306601f82010390500336823750506308c379a06106a05260206106c0526106e05160206001820306601f82010390506044016106bcfd5b3361048052336104a0526004356104c052610680516104e0526106a051610500526106c05161052052600161054052610948612d62565b6000600055005b634957677c8118610b695760005461317757600160005560033360a052608052604060802080546106805260018101546106a05250600060043511610a0557601a6106c0527f4d757374207374616b65206e6f6e207a65726f20616d6f756e740000000000006106e0526106c0506106c051806106e001818260206001820306601f82010390500336823750506308c379a06106805260206106a0526106c05160206001820306601f820103905060440161069cfd5b60006106805113610a875760166106c0527f4e6f206578697374696e67206c6f636b20666f756e64000000000000000000006106e0526106c0506106c051806106e001818260206001820306601f82010390500336823750506308c379a06106805260206106a0526106c05160206001820306601f820103905060440161069cfd5b426106a05111610b2d5760246106c0527f43616e6e6f742061646420746f2065787069726564206c6f636b2e20576974686106e0527f6472617700000000000000000000000000000000000000000000000000000000610700526106c0506106c051806106e001818260206001820306601f82010390500336823750506308c379a06106805260206106a0526106c05160206001820306601f820103905060440161069cfd5b3361048052336104a0526004356104c05260006104e05261068051610500526106a05161052052600261054052610b62612d62565b6000600055005b63eff7a6128118610eb95760005461317757600160005560033360a052608052604060802080546106805260018101546106a0525060043562093a808082049050905062093a8080820282158284830414171561317757905090506106c052426106a05111610c4957600c6106e0527f4c6f636b20657870697265640000000000000000000000000000000000000000610700526106e0506106e0518061070001818260206001820306601f82010390500336823750506308c379a06106a05260206106c0526106e05160206001820306601f82010390506044016106bcfd5b60006106805113610ccb5760116106e0527f4e6f7468696e67206973206c6f636b6564000000000000000000000000000000610700526106e0506106e0518061070001818260206001820306601f82010390500336823750506308c379a06106a05260206106c0526106e05160206001820306601f82010390506044016106bcfd5b6106a0516106c05111610d4f57601f6106e0527f43616e206f6e6c7920696e637265617365206c6f636b206475726174696f6e00610700526106e0506106e0518061070001818260206001820306601f82010390500336823750506308c379a06106a05260206106c0526106e05160206001820306601f82010390506044016106bcfd5b426303c26700818183011061317757808201905090506106c0511115610de657601e6106e0527f566f74696e67206c6f636b2063616e2062652032207965617273206d61780000610700526106e0506106e0518061070001818260206001820306601f82010390500336823750506308c379a06106a05260206106c0526106e05160206001820306601f82010390506044016106bcfd5b4262278d00818183011061317757808201905090506106c0511015610e7c57601e6106e0527f566f74696e67206c6f636b2063616e2062652031206d6f6e7468206d696e0000610700526106e0506106e0518061070001818260206001820306601f82010390500336823750506308c379a06106a05260206106c0526106e05160206001820306601f82010390506044016106bcfd5b3361048052336104a05260006104c0526106c0516104e05261068051610500526106a05161052052600361054052610eb2612d62565b6000600055005b633ccfd60b811861111b5760005461317757600160005560033360a052608052604060802080546104805260018101546104a052506c050c783ebf218f9e2d63100014546104c0526104a051421015610f15576104c051610f18565b60015b610fb85760316104e0527f546865206c6f636b206469646e27742065787069726520616e642066756e6473610500527f20617265206e6f7420756e6c6f636b6564000000000000000000000000000000610520526104e0506104e0518061050001818260206001820306601f82010390500336823750506308c379a06104a05260206104c0526104e05160206001820306601f82010390506044016104bcfd5b6104805160008112613177576104e05261048051610500526104a0516105205260006104a05260006104805260033360a05260805260406080206104805181556104a05160018201555060025461054052610540516104e05180821061317757808203905090506002553360e0526105005161010052610520516101205261048051610140526104a0516101605261104e612673565b63a9059cbb6105605233610580526104e0516105a0526020610560604461057c60006001545af1611084573d600060003e3d6000fd5b601f3d111561317757610560511561317757337ff279e6a1f5e320cca91135676d9cb6e44ca8a08c0b88342bcdb1144f6511b5686104e0516105605242610580526040610560a27f5e2aa66efd74cce82b21852e317e5490d9ecc9e6bb953ae24d90851258cc2f5c6105405161056052610540516104e0518082106131775780820390509050610580526040610560a16000600055005b63a81f20ad81186114fc576000546131775760016000556c050c783ebf218f9e2d6310001454156111e2576029610480527f46756e64732061726520756e6c6f636b65642c20757365206e6f726d616c20776104a0527f69746864726177282900000000000000000000000000000000000000000000006104c0526104805061048051806104a001818260206001820306601f82010390500336823750506308c379a0610440526020610460526104805160206001820306601f820103905060440161045cfd5b60033360a052608052604060802080546104805260018101546104a052506104a051421061128157600c6104c0527f6c6f636b206578706972656400000000000000000000000000000000000000006104e0526104c0506104c051806104e001818260206001820306601f82010390500336823750506308c379a06104805260206104a0526104c05160206001820306601f820103905060440161049cfd5b6104a0514280821061317757808203905090506104c052670de0b6b3a76400006104c05180820282158284830414171561317757905090506303c26700808204905090506c050c783ebf218f9e2d631000165480820282158284830414171561317757905090506064808204905090506104e0526104805160008112613177576105005261048051610520526104a0516105405260006104a05260006104805260033360a05260805260406080206104805181556104a05160018201555060025461056052610560516105005180821061317757808203905090506002553360e0526105205161010052610540516101205261048051610140526104a0516101605261138b612673565b610500516104e0518082028215828483041417156131775790509050670de0b6b3a7640000808204905090506105805263a9059cbb6105a052336105c052610500516105805180821061317757808203905090506105e05260206105a060446105bc60006001545af1611403573d600060003e3d6000fd5b601f3d1115613177576105a0511561317757600061058051146114775763a9059cbb6105a0526c050c783ebf218f9e2d63100015546105c052610580516105e05260206105a060446105bc60006001545af1611464573d600060003e3d6000fd5b601f3d1115613177576105a05115613177575b337ff279e6a1f5e320cca91135676d9cb6e44ca8a08c0b88342bcdb1144f6511b568610500516105a052426105c05260406105a0a27f5e2aa66efd74cce82b21852e317e5490d9ecc9e6bb953ae24d90851258cc2f5c610560516105a052610560516105005180821061317757808203905090506105c05260406105a0a16000600055005b6370a082318118611511574261010052611523565b62fdd58e811861164257602435610100525b6004358060a01c6131775760e0526c050c783eb9b5c840000000000660e05160a05260805260406080205461012052610120511561163057600461012051633b9aca0081101561317757026c050c783eb9b5c840000000000560e05160a05260805260406080200180546101405260018101546101605260028101546101805260038101546101a052506101408051610160516101005161018051808210613177578082039050905080607f1c613177578082028060801d81607f1d1861317757905090508082038060801d81607f1d1861317757905090508152506000610140511215611612576000610140525b6101405160008112613177576101c05260206101c061164056611640565b6000610140526020610140611640565bf35b63782d6fe18118611a78576004358060a01c613177576101a0524360243511156117025760226101c0527f4d757374207061737320626c6f636b206e756d62657220696e207468652070616101e0527f7374000000000000000000000000000000000000000000000000000000000000610200526101c0506101c051806101e001818260206001820306601f82010390500336823750506308c379a06101805260206101a0526101c05160206001820306601f820103905060440161019cfd5b60006101c0526c050c783eb9b5c84000000000066101a05160a0526080526040608020546101e05261020060006080818352015b6101e0516101c05110611748576117f3565b6101c0516101e05181818301106131775780820190509050600181818301106131775780820190509050600280820490509050610220526024356003600461022051633b9aca0081101561317757026c050c783eb9b5c84000000000056101a05160a052608052604060802001015411156117da5761022051600180821061317757808203905090506101e0526117e3565b610220516101c0525b8151600101808352811415611736575b505060046101c051633b9aca0081101561317757026c050c783eb9b5c84000000000056101a05160a052608052604060802001805461020052600181015461022052600281015461024052600381015461026052506004546102805260243560e05261028051610100526118686102c0612f30565b6102c0516102a05260046102a0516c01431e0fae6d7217caa0000000811015613177570260050180546102c05260018101546102e0526002810154610300526003810154610320525060403661034037610280516102a051106118f85743610320518082106131775780820390509050610340524261030051808210613177578082039050905061036052611980565b60046102a0516001818183011061317757808201905090506c01431e0fae6d7217caa0000000811015613177570260050180546103805260018101546103a05260028101546103c05260038101546103e052506103e051610320518082106131775780820390509050610340526103c051610300518082106131775780820390509050610360525b6103005161038052600061034051146119ea5761038080516103605160243561032051808210613177578082039050905080820282158284830414171561317757905090506103405180801561317757820490509050818183011061317757808201905090508152505b6102008051610220516103805161024051808210613177578082039050905080607f1c613177578082028060801d81607f1d1861317757905090508082038060801d81607f1d1861317757905090508152506000610200511215611a5c5760006103a05260206103a0611a7656611a76565b6102005160008112613177576103a05260206103a0611a76565bf35b6318160ddd8118611a8d574261026052611aa0565b63bd85b0398118611b2957600435610260525b600454610280526004610280516c01431e0fae6d7217caa0000000811015613177570260050180546102a05260018101546102c05260028101546102e052600381015461030052506102a05160e0526102c051610100526102e0516101205261030051610140526102605161016052611b1a610320613000565b61032051610340526020610340f35b63981b24d08118611de157436004351115611bda576022610260527f4d757374207061737320626c6f636b206e756d62657220696e20746865207061610280527f73740000000000000000000000000000000000000000000000000000000000006102a05261026050610260518061028001818260206001820306601f82010390500336823750506308c379a0610220526020610240526102605160206001820306601f820103905060440161023cfd5b6004546102605260043560e0526102605161010052611bfa6102a0612f30565b6102a051610280526004610280516c01431e0fae6d7217caa0000000811015613177570260050180546102a05260018101546102c05260028101546102e05260038101546103005250600061032052610260516102805110611cc557436103005114611d8c57600435610300518082106131775780820390509050426102e05180821061317757808203905090508082028215828483041417156131775790509050436103005180821061317757808203905090508080156131775782049050905061032052611d8c565b6004610280516001818183011061317757808201905090506c01431e0fae6d7217caa0000000811015613177570260050180546103405260018101546103605260028101546103805260038101546103a052506103a0516103005114611d8c57600435610300518082106131775780820390509050610380516102e051808210613177578082039050905080820282158284830414171561317757905090506103a05161030051808210613177578082039050905080801561317757820490509050610320525b6102a05160e0526102c051610100526102e0516101205261030051610140526102e051610320518181830110613177578082019050905061016052611dd2610340613000565b61034051610360526020610360f35b63bc536bce8118611fe157600060e052610100600435612710818352015b602435610100511115611e1157611fd0565b60016101005168056bc75e2d6310000081101561317757026c050c783eb9b5c8400000000008015461012052600360016101005168056bc75e2d6310000081101561317757026c050c783eb9b5c8400000000008015460a05260805260406080208054610140526001810154610160525060643560443581818301106131775780820190509050610160511015611ea3575b6c050c783eb9b5c84000000000066101205160a052608052604060802054610180526101805115611fad57600461018051633b9aca0081101561317757026c050c783eb9b5c84000000000056101205160a05260805260406080200180546101a05260018101546101c05260028101546101e052600381015461020052506101a080516101c0516064356101e051808210613177578082039050905080607f1c613177578082028060801d81607f1d1861317757905090508082038060801d81607f1d18613177579050905081525060006101a0511215611f855760006101a0525b60e080516101a051600081126131775781818301106131775780820190509050815250611fc0565b50505060006101a05260206101a0611fdf565b8151600101808352811415611dff575b505060e0516101005260206101005bf35b63fc0c546a8118611ff85760015460e052602060e0f35b63047fc9aa811861200f5760025460e052602060e0f35b63cbf9fe5f811861204f576004358060a01c6131775760e052600360e05160a0526080526040608020805461010052600181015461012052506040610100f35b63900cf0cf81186120665760045460e052602060e0f35b63d1febfb981186120b65760046004356c01431e0fae6d7217caa00000008110156131775702600501805460e05260018101546101005260028101546101205260038101546101405250608060e0f35b6328d09d478118612127576004358060a01c6131775760e0526004602435633b9aca0081101561317757026c050c783eb9b5c840000000000560e05160a052608052604060802001805461010052600181015461012052600281015461014052600381015461016052506080610100f35b63010ae7578118612168576004358060a01c6131775760e0526c050c783eb9b5c840000000000660e05160a052608052604060802054610100526020610100f35b63711974848118612199576c050c783eb9b5c840000000000760043560a05260805260406080205460e052602060e0f35b63365b98b281186121d457600160043568056bc75e2d6310000081101561317757026c050c783eb9b5c8400000000008015460e052602060e0f35b63c96679fe8118612215576004358060a01c6131775760e0526c050c783ebf218f9e2d6310000860e05160a052608052604060802054610100526020610100f35b6360407c8d8118612238576c050c783ebf218f9e2d631000095460e052602060e0f35b6306fdde0381186122e75760e0806020808252808301806c050c783ebf218f9e2d6310000a8082602082540160c060006003818352015b8260c0516020021115612281576122a0565b60c05185015460c051602002850152815160010180835281141561226f575b5050505050508051806020830101818260206001820306601f8201039050033682375050805160200160206001820306601f820103905090509050810190509050905060e0f35b6395d89b4181186123965760e0806020808252808301806c050c783ebf218f9e2d6310000d8082602082540160c060006002818352015b8260c05160200211156123305761234f565b60c05185015460c051602002850152815160010180835281141561231e575b5050505050508051806020830101818260206001820306601f8201039050033682375050805160200160206001820306601f820103905090509050810190509050905060e0f35b63313ce56781186123b9576c050c783ebf218f9e2d6310000f5460e052602060e0f35b638ff36fd181186123dc576c050c783ebf218f9e2d631000105460e052602060e0f35b637175d4f781186123ff576c050c783ebf218f9e2d631000115460e052602060e0f35b63f851a4408118612422576c050c783ebf218f9e2d631000125460e052602060e0f35b6317f7182a8118612445576c050c783ebf218f9e2d631000135460e052602060e0f35b6381565a948118612468576c050c783ebf218f9e2d631000145460e052602060e0f35b6316bfdd56811861248b576c050c783ebf218f9e2d631000155460e052602060e0f35b63f3ad1ec881186124ae576c050c783ebf218f9e2d631000165460e052602060e0f35b505b60006000fd3260e051146125be576c050c783ebf218f9e2d631000115461010052600061010051146125245763c23697a86101205260e051610140526020610120602461013c6000610100515af161250d573d600060003e3d6000fd5b601f3d1115613177576101205115612524576125be565b6025610120527f536d61727420636f6e7472616374206465706f7369746f7273206e6f7420616c610140527f6c6f7765640000000000000000000000000000000000000000000000000000006101605261012050610120518061014001818260206001820306601f82010390500336823750506308c379a060e0526020610100526101205160206001820306601f820103905060440160fcfd5b565b60006c050c783ebf218f9e2d6310000860e05160a052608052604060802054146125e957612671565b6c050c783ebf218f9e2d63100009805460018181830110613177578082019050905081555060e05160016c050c783ebf218f9e2d631000095468056bc75e2d6310000081101561317757026c050c783eb9b5c840000000000801556c050c783ebf218f9e2d63100009546c050c783ebf218f9e2d6310000860e05160a0526080526040608020555b565b61014036610180376004546102c052600060e051146127e45742610120511161269d5760006126a5565b600061010051135b1561270357610100516303c267008082058060801d81607f1d1861317757905090506101a0526101a0516101205142808210613177578082039050905080607f1c613177578082028060801d81607f1d186131775790509050610180525b42610160511161271457600061271c565b600061014051135b1561277a57610140516303c267008082058060801d81607f1d18613177579050905061022052610220516101605142808210613177578082039050905080607f1c613177578082028060801d81607f1d186131775790509050610200525b6c050c783eb9b5c84000000000076101205160a05260805260406080205461028052600061016051146127e4576101205161016051186127c157610280516102a0526127e4565b6c050c783eb9b5c84000000000076101605160a0526080526040608020546102a0525b6040366102e0374261032052436103405260006102c05111156128435760046102c0516c01431e0fae6d7217caa0000000811015613177570260050180546102e052600181015461030052600281015461032052600381015461034052505b61032051610360526102e05161038052610300516103a052610320516103c052610340516103e052600061040052610320514211156128d157670de0b6b3a76400004361034051808210613177578082039050905080820282158284830414171561317757905090504261032051808210613177578082039050905080801561317757820490509050610400525b6103605162093a808082049050905062093a80808202821582848304141715613177579050905061042052610440600060ff818352015b610420805162093a808181830110613177578082019050905081525060006104605242610420511161295b576c050c783eb9b5c84000000000076104205160a05260805260406080205461046052612961565b42610420525b6102e08051610300516104205161036051808210613177578082039050905080607f1c613177578082028060801d81607f1d1861317757905090508082038060801d81607f1d1861317757905090508152506103008051610460518082018060801d81607f1d18613177579050905081525060006102e05112156129e65760006102e0525b60006103005112156129f9576000610300525b610420516103605261042051610320526103e05161040051610420516103c05180821061317757808203905090508082028215828483041417156131775790509050670de0b6b3a76400008082049050905081818301106131775780820190509050610340526102c08051600181818301106131775780820190509050815250426104205118612a91574361034052612ae356612ad3565b60046102c0516c01431e0fae6d7217caa000000081101561317757026005016102e0518155610300516001820155610320516002820155610340516003820155505b8151600101808352811415612908575b50506102c051600455600060e05114612b8c576103008051610220516101a0518082038060801d81607f1d1861317757905090508082018060801d81607f1d1861317757905090508152506102e0805161020051610180518082038060801d81607f1d1861317757905090508082018060801d81607f1d1861317757905090508152506000610300511215612b79576000610300525b60006102e0511215612b8c5760006102e0525b60046102c0516c01431e0fae6d7217caa000000081101561317757026005016102e051815561030051600182015561032051600282015561034051600382015550600060e05114612d605742610120511115612c535761028080516101a0518082018060801d81607f1d186131775790509050815250610120516101605118612c30576102808051610220518082038060801d81607f1d1861317757905090508152505b610280516c050c783eb9b5c84000000000076101205160a0526080526040608020555b42610160511115612caf5761012051610160511115612caf576102a08051610220518082038060801d81607f1d1861317757905090508152506102a0516c050c783eb9b5c84000000000076101605160a0526080526040608020555b6c050c783eb9b5c840000000000660e05160a05260805260406080205460018181830110613177578082019050905061044052610440516c050c783eb9b5c840000000000660e05160a05260805260406080205542610240524361026052600461044051633b9aca0081101561317757026c050c783eb9b5c840000000000560e05160a052608052604060802001610200518155610220516001820155610240516002820155610260516003820155505b565b610500516105605261052051610580526002546105a0526105a0516104c05181818301106131775780820190509050600255610560516105c052610580516105e05261056080516104c05180607f1c613177578082018060801d81607f1d18613177579050905081525060006104e05114612de0576104e051610580525b60036104a05160a0526080526040608020610560518155610580516001820155506104a05160e0526105c051610100526105e0516101205261056051610140526105805161016052612e30612673565b60006104c05114612e8c576323b872dd61060052610480516106205230610640526104c051610660526020610600606461061c60006001545af1612e79573d600060003e3d6000fd5b601f3d1115613177576106005115613177575b6104a05160e052612e9b6125c0565b610580516104a051610480517f4ace3cb811d903eba44ce1721d1a1d79232246711977f44236000551f8c11cc16104c05161060052610540516106205242610640526060610600a47f5e2aa66efd74cce82b21852e317e5490d9ecc9e6bb953ae24d90851258cc2f5c6105a051610600526105a0516104c05181818301106131775780820190509050610620526040610600a1565b600061012052610100516101405261016060006080818352015b610140516101205110612f5c57612ff5565b6101205161014051818183011061317757808201905090506001818183011061317757808201905090506002808204905090506101805260e05160036004610180516c01431e0fae6d7217caa0000000811015613177570260050101541115612fdc57610180516001808210613177578082039050905061014052612fe5565b61018051610120525b8151600101808352811415612f4a575b505061012051815250565b60e05161018052610100516101a052610120516101c052610140516101e0526101c05162093a808082049050905062093a80808202821582848304141715613177579050905061020052610220600060ff818352015b610200805162093a80818183011061317757808201905090508152506000610240526101605161020051116130ac576c050c783eb9b5c84000000000076102005160a052608052604060802054610240526130b5565b61016051610200525b61018080516101a051610200516101c051808210613177578082039050905080607f1c613177578082028060801d81607f1d1861317757905090508082038060801d81607f1d18613177579050905081525061016051610200511861311957613151565b6101a08051610240518082018060801d81607f1d186131775790509050815250610200516101c0528151600101808352811415613056575b50506000610180511215613166576000610180525b610180516000811261317757815250565b600080fd5b6101de61335a036101de6000396101de61335a036000f35b600080fd"
}