{
  "address": "0xfDf605d6278C90cd1Bd0F21744FB5661F6086c17",
  "abi": [
    {
      "name": "CommitOwnership",
      "inputs": [
        {
          "name": "admin",
          "type": "address",
          "indexed": false
        }
      ],
      "anonymous": false,
      "type": "event"
    },
    {
      "name": "ApplyOwnership",
      "inputs": [
        {
          "name": "admin",
          "type": "address",
          "indexed": false
        }
      ],
      "anonymous": false,
      "type": "event"
    },
    {
      "name": "FundsUnlocked",
      "inputs": [
        {
          "name": "funds_unlocked",
          "type": "bool",
          "indexed": false
        }
      ],
      "anonymous": false,
      "type": "event"
    },
    {
      "name": "Deposit",
      "inputs": [
        {
          "name": "deposit_from",
          "type": "address",
          "indexed": true
        },
        {
          "name": "provider",
          "type": "address",
          "indexed": true
        },
        {
          "name": "value",
          "type": "uint256",
          "indexed": false
        },
        {
          "name": "locktime",
          "type": "uint256",
          "indexed": true
        },
        {
          "name": "type",
          "type": "int128",
          "indexed": false
        },
        {
          "name": "ts",
          "type": "uint256",
          "indexed": false
        }
      ],
      "anonymous": false,
      "type": "event"
    },
    {
      "name": "Withdraw",
      "inputs": [
        {
          "name": "provider",
          "type": "address",
          "indexed": true
        },
        {
          "name": "value",
          "type": "uint256",
          "indexed": false
        },
        {
          "name": "ts",
          "type": "uint256",
          "indexed": false
        }
      ],
      "anonymous": false,
      "type": "event"
    },
    {
      "name": "Supply",
      "inputs": [
        {
          "name": "prevSupply",
          "type": "uint256",
          "indexed": false
        },
        {
          "name": "supply",
          "type": "uint256",
          "indexed": false
        }
      ],
      "anonymous": false,
      "type": "event"
    },
    {
      "name": "PenaltyUpdated",
      "inputs": [
        {
          "name": "new_penalty",
          "type": "uint256",
          "indexed": false
        }
      ],
      "anonymous": false,
      "type": "event"
    },
    {
      "stateMutability": "nonpayable",
      "type": "constructor",
      "inputs": [
        {
          "name": "token_addr",
          "type": "address"
        },
        {
          "name": "_name",
          "type": "string"
        },
        {
          "name": "_symbol",
          "type": "string"
        },
        {
          "name": "_admin",
          "type": "address"
        },
        {
          "name": "_penalty_handler",
          "type": "address"
        }
      ],
      "outputs": []
    },
    {
      "stateMutability": "nonpayable",
      "type": "function",
      "name": "set_penalty_handler",
      "inputs": [
        {
          "name": "addr",
          "type": "address"
        }
      ],
      "outputs": [],
      "gas": 39816
    },
    {
      "stateMutability": "nonpayable",
      "type": "function",
      "name": "set_max_penalty",
      "inputs": [
        {
          "name": "_max_penalty",
          "type": "uint256"
        }
      ],
      "outputs": [],
      "gas": 39455
    },
    {
      "stateMutability": "nonpayable",
      "type": "function",
      "name": "commit_transfer_ownership",
      "inputs": [
        {
          "name": "addr",
          "type": "address"
        }
      ],
      "outputs": [],
      "gas": 39505
    },
    {
      "stateMutability": "nonpayable",
      "type": "function",
      "name": "apply_transfer_ownership",
      "inputs": [],
      "outputs": [],
      "gas": 41596
    },
    {
      "stateMutability": "nonpayable",
      "type": "function",
      "name": "commit_smart_wallet_checker",
      "inputs": [
        {
          "name": "addr",
          "type": "address"
        }
      ],
      "outputs": [],
      "gas": 37725
    },
    {
      "stateMutability": "nonpayable",
      "type": "function",
      "name": "apply_smart_wallet_checker",
      "inputs": [],
      "outputs": [],
      "gas": 39701
    },
    {
      "stateMutability": "nonpayable",
      "type": "function",
      "name": "set_funds_unlocked",
      "inputs": [
        {
          "name": "_funds_unlocked",
          "type": "bool"
        }
      ],
      "outputs": [],
      "gas": 39625
    },
    {
      "stateMutability": "view",
      "type": "function",
      "name": "get_last_user_slope",
      "inputs": [
        {
          "name": "addr",
          "type": "address"
        }
      ],
      "outputs": [
        {
          "name": "",
          "type": "int128"
        }
      ],
      "gas": 5214
    },
    {
      "stateMutability": "view",
      "type": "function",
      "name": "user_point_history__ts",
      "inputs": [
        {
          "name": "_addr",
          "type": "address"
        },
        {
          "name": "_idx",
          "type": "uint256"
        }
      ],
      "outputs": [
        {
          "name": "",
          "type": "uint256"
        }
      ],
      "gas": 3017
    },
    {
      "stateMutability": "view",
      "type": "function",
      "name": "locked__end",
      "inputs": [
        {
          "name": "_addr",
          "type": "address"
        }
      ],
      "outputs": [
        {
          "name": "",
          "type": "uint256"
        }
      ],
      "gas": 3002
    },
    {
      "stateMutability": "nonpayable",
      "type": "function",
      "name": "checkpoint",
      "inputs": [],
      "outputs": [],
      "gas": 37283430
    },
    {
      "stateMutability": "nonpayable",
      "type": "function",
      "name": "deposit_for",
      "inputs": [
        {
          "name": "_addr",
          "type": "address"
        },
        {
          "name": "_value",
          "type": "uint256"
        }
      ],
      "outputs": [],
      "gas": 37591174
    },
    {
      "stateMutability": "nonpayable",
      "type": "function",
      "name": "create_lock",
      "inputs": [
        {
          "name": "_value",
          "type": "uint256"
        },
        {
          "name": "_unlock_time",
          "type": "uint256"
        }
      ],
      "outputs": [],
      "gas": 37597442
    },
    {
      "stateMutability": "nonpayable",
      "type": "function",
      "name": "increase_amount",
      "inputs": [
        {
          "name": "_value",
          "type": "uint256"
        }
      ],
      "outputs": [],
      "gas": 37590076
    },
    {
      "stateMutability": "nonpayable",
      "type": "function",
      "name": "increase_unlock_time",
      "inputs": [
        {
          "name": "_unlock_time",
          "type": "uint256"
        }
      ],
      "outputs": [],
      "gas": 37597492
    },
    {
      "stateMutability": "nonpayable",
      "type": "function",
      "name": "withdraw",
      "inputs": [],
      "outputs": [],
      "gas": 37468088
    },
    {
      "stateMutability": "nonpayable",
      "type": "function",
      "name": "force_withdraw",
      "inputs": [],
      "outputs": [],
      "gas": 37485914
    },
    {
      "stateMutability": "view",
      "type": "function",
      "name": "balanceOf",
      "inputs": [
        {
          "name": "addr",
          "type": "address"
        }
      ],
      "outputs": [
        {
          "name": "",
          "type": "uint256"
        }
      ],
      "gas": 12780
    },
    {
      "stateMutability": "view",
      "type": "function",
      "name": "balanceOf",
      "inputs": [
        {
          "name": "addr",
          "type": "address"
        },
        {
          "name": "_t",
          "type": "uint256"
        }
      ],
      "outputs": [
        {
          "name": "",
          "type": "uint256"
        }
      ],
      "gas": 12780
    },
    {
      "stateMutability": "view",
      "type": "function",
      "name": "getPriorVotes",
      "inputs": [
        {
          "name": "addr",
          "type": "address"
        },
        {
          "name": "_block",
          "type": "uint256"
        }
      ],
      "outputs": [
        {
          "name": "",
          "type": "uint256"
        }
      ],
      "gas": 796485
    },
    {
      "stateMutability": "view",
      "type": "function",
      "name": "totalSupply",
      "inputs": [],
      "outputs": [
        {
          "name": "",
          "type": "uint256"
        }
      ],
      "gas": 905266
    },
    {
      "stateMutability": "view",
      "type": "function",
      "name": "totalSupply",
      "inputs": [
        {
          "name": "t",
          "type": "uint256"
        }
      ],
      "outputs": [
        {
          "name": "",
          "type": "uint256"
        }
      ],
      "gas": 905266
    },
    {
      "stateMutability": "view",
      "type": "function",
      "name": "totalSupplyAt",
      "inputs": [
        {
          "name": "_block",
          "type": "uint256"
        }
      ],
      "outputs": [
        {
          "name": "",
          "type": "uint256"
        }
      ],
      "gas": 1291183
    },
    {
      "stateMutability": "view",
      "type": "function",
      "name": "calculate_balances_range_threshold",
      "inputs": [
        {
          "name": "_from",
          "type": "uint256"
        },
        {
          "name": "_to",
          "type": "uint256"
        },
        {
          "name": "threshold",
          "type": "uint256"
        },
        {
          "name": "at",
          "type": "uint256"
        }
      ],
      "outputs": [
        {
          "name": "",
          "type": "uint256"
        }
      ],
      "gas": 95251053
    },
    {
      "stateMutability": "view",
      "type": "function",
      "name": "token",
      "inputs": [],
      "outputs": [
        {
          "name": "",
          "type": "address"
        }
      ],
      "gas": 3120
    },
    {
      "stateMutability": "view",
      "type": "function",
      "name": "supply",
      "inputs": [],
      "outputs": [
        {
          "name": "",
          "type": "uint256"
        }
      ],
      "gas": 3150
    },
    {
      "stateMutability": "view",
      "type": "function",
      "name": "locked",
      "inputs": [
        {
          "name": "arg0",
          "type": "address"
        }
      ],
      "outputs": [
        {
          "name": "",
          "type": "tuple",
          "components": [
            {
              "name": "amount",
              "type": "int128"
            },
            {
              "name": "end",
              "type": "uint256"
            }
          ]
        }
      ],
      "gas": 5603
    },
    {
      "stateMutability": "view",
      "type": "function",
      "name": "epoch",
      "inputs": [],
      "outputs": [
        {
          "name": "",
          "type": "uint256"
        }
      ],
      "gas": 3210
    },
    {
      "stateMutability": "view",
      "type": "function",
      "name": "point_history",
      "inputs": [
        {
          "name": "arg0",
          "type": "uint256"
        }
      ],
      "outputs": [
        {
          "name": "",
          "type": "tuple",
          "components": [
            {
              "name": "bias",
              "type": "int128"
            },
            {
              "name": "slope",
              "type": "int128"
            },
            {
              "name": "ts",
              "type": "uint256"
            },
            {
              "name": "blk",
              "type": "uint256"
            }
          ]
        }
      ],
      "gas": 9674
    },
    {
      "stateMutability": "view",
      "type": "function",
      "name": "user_point_history",
      "inputs": [
        {
          "name": "arg0",
          "type": "address"
        },
        {
          "name": "arg1",
          "type": "uint256"
        }
      ],
      "outputs": [
        {
          "name": "",
          "type": "tuple",
          "components": [
            {
              "name": "bias",
              "type": "int128"
            },
            {
              "name": "slope",
              "type": "int128"
            },
            {
              "name": "ts",
              "type": "uint256"
            },
            {
              "name": "blk",
              "type": "uint256"
            }
          ]
        }
      ],
      "gas": 9970
    },
    {
      "stateMutability": "view",
      "type": "function",
      "name": "user_point_epoch",
      "inputs": [
        {
          "name": "arg0",
          "type": "address"
        }
      ],
      "outputs": [
        {
          "name": "",
          "type": "uint256"
        }
      ],
      "gas": 3566
    },
    {
      "stateMutability": "view",
      "type": "function",
      "name": "slope_changes",
      "inputs": [
        {
          "name": "arg0",
          "type": "uint256"
        }
      ],
      "outputs": [
        {
          "name": "",
          "type": "int128"
        }
      ],
      "gas": 3445
    },
    {
      "stateMutability": "view",
      "type": "function",
      "name": "users",
      "inputs": [
        {
          "name": "arg0",
          "type": "uint256"
        }
      ],
      "outputs": [
        {
          "name": "",
          "type": "address"
        }
      ],
      "gas": 3405
    },
    {
      "stateMutability": "view",
      "type": "function",
      "name": "userIndex",
      "inputs": [
        {
          "name": "arg0",
          "type": "address"
        }
      ],
      "outputs": [
        {
          "name": "",
          "type": "uint256"
        }
      ],
      "gas": 3656
    },
    {
      "stateMutability": "view",
      "type": "function",
      "name": "userCnt",
      "inputs": [],
      "outputs": [
        {
          "name": "",
          "type": "uint256"
        }
      ],
      "gas": 3420
    },
    {
      "stateMutability": "view",
      "type": "function",
      "name": "name",
      "inputs": [],
      "outputs": [
        {
          "name": "",
          "type": "string"
        }
      ],
      "gas": 13739
    },
    {
      "stateMutability": "view",
      "type": "function",
      "name": "symbol",
      "inputs": [],
      "outputs": [
        {
          "name": "",
          "type": "string"
        }
      ],
      "gas": 11498
    },
    {
      "stateMutability": "view",
      "type": "function",
      "name": "decimals",
      "inputs": [],
      "outputs": [
        {
          "name": "",
          "type": "uint256"
        }
      ],
      "gas": 3510
    },
    {
      "stateMutability": "view",
      "type": "function",
      "name": "future_smart_wallet_checker",
      "inputs": [],
      "outputs": [
        {
          "name": "",
          "type": "address"
        }
      ],
      "gas": 3540
    },
    {
      "stateMutability": "view",
      "type": "function",
      "name": "smart_wallet_checker",
      "inputs": [],
      "outputs": [
        {
          "name": "",
          "type": "address"
        }
      ],
      "gas": 3570
    },
    {
      "stateMutability": "view",
      "type": "function",
      "name": "admin",
      "inputs": [],
      "outputs": [
        {
          "name": "",
          "type": "address"
        }
      ],
      "gas": 3600
    },
    {
      "stateMutability": "view",
      "type": "function",
      "name": "future_admin",
      "inputs": [],
      "outputs": [
        {
          "name": "",
          "type": "address"
        }
      ],
      "gas": 3630
    },
    {
      "stateMutability": "view",
      "type": "function",
      "name": "is_unlocked",
      "inputs": [],
      "outputs": [
        {
          "name": "",
          "type": "bool"
        }
      ],
      "gas": 3660
    },
    {
      "stateMutability": "view",
      "type": "function",
      "name": "penalty_handler",
      "inputs": [],
      "outputs": [
        {
          "name": "",
          "type": "address"
        }
      ],
      "gas": 3690
    },
    {
      "stateMutability": "view",
      "type": "function",
      "name": "max_penalty",
      "inputs": [],
      "outputs": [
        {
          "name": "",
          "type": "uint256"
        }
      ],
      "gas": 3720
    }
  ],
  "transactionHash": "0xae5dd5a01dc574c40fc517e06c941e5fe3df4a5c54c2eb2c6f9e3f229fb3a33d",
  "args": [
    "0x28fD7d8F05F945769DE379f52c3a9B83B2BC2215",
    "Vote Escrow Volt",
    "veVOLT",
    "0x0a9aE19397a699C81e8d0E1B7C893E8cC4A6CEE3",
    "0x44877Ea80421D57139f6eA3F2bC6096EE842494B"
  ],
  "bytecode": "0x602061330d6080396080518060a01c6133085760e0526020602061330d0160803960805161330d0160406020826080396080511161330857806020816080396080516020018082610100395050506020604061330d0160803960805161330d0160206020826080396080511161330857806020816080396080516020018082610160395050506020606061330d016080396080518060a01c613308576101a0526020608061330d016080396080518060a01c613308576101c0526101a0516c050c783ebf218f9e2d631000125560e0516001556101c0516c050c783ebf218f9e2d6310001555436008554260075563313ce567610200526020610200600461021c60e0515afa610114573d600060003e3d6000fd5b601f3d111561330857610200516101e05260ff6101e05111613308576101e0516c050c783ebf218f9e2d6310000f55610100806c050c783ebf218f9e2d6310000a602082510160c060006003818352015b8260c051602002111561017757610196565b60c05160200285015160c0518501558151600101808352811415610165575b505050505050610160806c050c783ebf218f9e2d6310000d602082510160c060006002818352015b8260c05160200211156101d0576101ef565b60c05160200285015160c05185015581516001018083528114156101be575b50505050505060646c050c783ebf218f9e2d63100016556132f056600436101561000d57612419565b60046000601c37600051346130e057636a4609598118610085576004358060a01c6130e05760e0526c050c783ebf218f9e2d63100012543318610051576001610062565b6c050c783ebf218f9e2d6310001554155b156130e057600060e051146130e05760e0516c050c783ebf218f9e2d6310001555005b639c4cb62a8118610104576c050c783ebf218f9e2d631000125433186130e057600060043510156100b75760006100bf565b606460043511155b156130e0576004356c050c783ebf218f9e2d63100016557fc831f5abc7bc27c011edea988b6e4e573af053efa7cfa703a1878827ec6acc1060043560e052602060e0a1005b636b441a408118610174576004358060a01c6130e05760e0526c050c783ebf218f9e2d631000125433186130e05760e0516c050c783ebf218f9e2d63100013557f2f56810a6bf40af059b96d3aea4db54081f378029a518390491093a7b67032e960e051610100526020610100a1005b636a1c05ae81186101f2576c050c783ebf218f9e2d631000125433186130e0576c050c783ebf218f9e2d631000135460e052600060e051146130e05760e0516c050c783ebf218f9e2d63100012557febee2d5739011062cb4f14113f3b36bf0ffe3da5c0568f64189d1012a118910560e051610100526020610100a1005b6357f901e28118610234576004358060a01c6130e05760e0526c050c783ebf218f9e2d631000125433186130e05760e0516c050c783ebf218f9e2d6310001055005b638e5b490f8118610274576c050c783ebf218f9e2d631000125433186130e0576c050c783ebf218f9e2d63100010546c050c783ebf218f9e2d6310001155005b638847b57481186102e4576004358060011c6130e05760e0526c050c783ebf218f9e2d631000125433186130e05760e0516c050c783ebf218f9e2d63100014557f6f9c7879220530d66ede8422a83c8aabeac4631a7269cbdf3bf8f47f74e5269760e051610100526020610100a1005b637c74a174811861035d576004358060a01c6130e05760e0526c050c783eb9b5c840000000000660e05160a052608052604060802054610100526001600461010051633b9aca008110156130e057026c050c783eb9b5c840000000000560e05160a0526080526040608020010154610120526020610120f35b63da020a1881186103b4576004358060a01c6130e05760e05260026004602435633b9aca008110156130e057026c050c783eb9b5c840000000000560e05160a0526080526040608020010154610100526020610100f35b63adc6358981186103ec576004358060a01c6130e05760e0526001600360e05160a05260805260406080200154610100526020610100f35b63c2c4c5c1811861041457600060e05260403661010037604036610140376104126125dc565b005b633a46273e81186105de576004358060a01c6130e057610680526000546130e057600160005560036106805160a052608052604060802080546106a05260018101546106c05250600060243511156130e05760006106a051136104e85760166106e0527f4e6f206578697374696e67206c6f636b20666f756e6400000000000000000000610700526106e0506106e0518061070001818260206001820306601f82010390500336823750506308c379a06106a05260206106c0526106e05160206001820306601f82010390506044016106bcfd5b426106c0511161058e5760246106e0527f43616e6e6f742061646420746f2065787069726564206c6f636b2e2057697468610700527f6472617700000000000000000000000000000000000000000000000000000000610720526106e0506106e0518061070001818260206001820306601f82010390500336823750506308c379a06106a05260206106c0526106e05160206001820306601f82010390506044016106bcfd5b3361048052610680516104a0526024356104c05260006104e05260036106805160a0526080526040608020805461050052600181015461052052506000610540526105d7612ccb565b6000600055005b6365fc3873811861094f576000546130e057600160005560243562093a808082049050905062093a808082028215828483041417156130e057905090506106805260033360a052608052604060802080546106a05260018101546106c052506000600435116106be57601a6106e0527f4d757374207374616b65206e6f6e207a65726f20616d6f756e74000000000000610700526106e0506106e0518061070001818260206001820306601f82010390500336823750506308c379a06106a05260206106c0526106e05160206001820306601f82010390506044016106bcfd5b6106a0511561073e5760196106e0527f5769746864726177206f6c6420746f6b656e7320666972737400000000000000610700526106e0506106e0518061070001818260206001820306601f82010390500336823750506308c379a06106a05260206106c0526106e05160206001820306601f82010390506044016106bcfd5b4261068051116107e45760266106e0527f43616e206f6e6c79206c6f636b20756e74696c2074696d6520696e2074686520610700527f6675747572650000000000000000000000000000000000000000000000000000610720526106e0506106e0518061070001818260206001820306601f82010390500336823750506308c379a06106a05260206106c0526106e05160206001820306601f82010390506044016106bcfd5b426303c2670081818301106130e0578082019050905061068051111561087b57601e6106e0527f566f74696e67206c6f636b2063616e2062652032207965617273206d61780000610700526106e0506106e0518061070001818260206001820306601f82010390500336823750506308c379a06106a05260206106c0526106e05160206001820306601f82010390506044016106bcfd5b426224ea0081818301106130e0578082019050905061068051101561091157601e6106e0527f566f74696e67206c6f636b2063616e2062652031206d6f6e7468206d696e0000610700526106e0506106e0518061070001818260206001820306601f82010390500336823750506308c379a06106a05260206106c0526106e05160206001820306601f82010390506044016106bcfd5b3361048052336104a0526004356104c052610680516104e0526106a051610500526106c05161052052600161054052610948612ccb565b6000600055005b634957677c8118610b69576000546130e057600160005560033360a052608052604060802080546106805260018101546106a05250600060043511610a0557601a6106c0527f4d757374207374616b65206e6f6e207a65726f20616d6f756e740000000000006106e0526106c0506106c051806106e001818260206001820306601f82010390500336823750506308c379a06106805260206106a0526106c05160206001820306601f820103905060440161069cfd5b60006106805113610a875760166106c0527f4e6f206578697374696e67206c6f636b20666f756e64000000000000000000006106e0526106c0506106c051806106e001818260206001820306601f82010390500336823750506308c379a06106805260206106a0526106c05160206001820306601f820103905060440161069cfd5b426106a05111610b2d5760246106c0527f43616e6e6f742061646420746f2065787069726564206c6f636b2e20576974686106e0527f6472617700000000000000000000000000000000000000000000000000000000610700526106c0506106c051806106e001818260206001820306601f82010390500336823750506308c379a06106805260206106a0526106c05160206001820306601f820103905060440161069cfd5b3361048052336104a0526004356104c05260006104e05261068051610500526106a05161052052600261054052610b62612ccb565b6000600055005b63eff7a6128118610eb9576000546130e057600160005560033360a052608052604060802080546106805260018101546106a0525060043562093a808082049050905062093a808082028215828483041417156130e057905090506106c052426106a05111610c4957600c6106e0527f4c6f636b20657870697265640000000000000000000000000000000000000000610700526106e0506106e0518061070001818260206001820306601f82010390500336823750506308c379a06106a05260206106c0526106e05160206001820306601f82010390506044016106bcfd5b60006106805113610ccb5760116106e0527f4e6f7468696e67206973206c6f636b6564000000000000000000000000000000610700526106e0506106e0518061070001818260206001820306601f82010390500336823750506308c379a06106a05260206106c0526106e05160206001820306601f82010390506044016106bcfd5b6106a0516106c05111610d4f57601f6106e0527f43616e206f6e6c7920696e637265617365206c6f636b206475726174696f6e00610700526106e0506106e0518061070001818260206001820306601f82010390500336823750506308c379a06106a05260206106c0526106e05160206001820306601f82010390506044016106bcfd5b426303c2670081818301106130e057808201905090506106c0511115610de657601e6106e0527f566f74696e67206c6f636b2063616e2062652032207965617273206d61780000610700526106e0506106e0518061070001818260206001820306601f82010390500336823750506308c379a06106a05260206106c0526106e05160206001820306601f82010390506044016106bcfd5b426224ea0081818301106130e057808201905090506106c0511015610e7c57601e6106e0527f566f74696e67206c6f636b2063616e2062652031206d6f6e7468206d696e0000610700526106e0506106e0518061070001818260206001820306601f82010390500336823750506308c379a06106a05260206106c0526106e05160206001820306601f82010390506044016106bcfd5b3361048052336104a05260006104c0526106c0516104e05261068051610500526106a05161052052600361054052610eb2612ccb565b6000600055005b633ccfd60b811861111b576000546130e057600160005560033360a052608052604060802080546104805260018101546104a052506c050c783ebf218f9e2d63100014546104c0526104a051421015610f15576104c051610f18565b60015b610fb85760316104e0527f546865206c6f636b206469646e27742065787069726520616e642066756e6473610500527f20617265206e6f7420756e6c6f636b6564000000000000000000000000000000610520526104e0506104e0518061050001818260206001820306601f82010390500336823750506308c379a06104a05260206104c0526104e05160206001820306601f82010390506044016104bcfd5b61048051600081126130e0576104e05261048051610500526104a0516105205260006104a05260006104805260033360a05260805260406080206104805181556104a05160018201555060025461054052610540516104e0518082106130e057808203905090506002553360e0526105005161010052610520516101205261048051610140526104a0516101605261104e6125dc565b63a9059cbb6105605233610580526104e0516105a0526020610560604461057c60006001545af1611084573d600060003e3d6000fd5b601f3d11156130e05761056051156130e057337ff279e6a1f5e320cca91135676d9cb6e44ca8a08c0b88342bcdb1144f6511b5686104e0516105605242610580526040610560a27f5e2aa66efd74cce82b21852e317e5490d9ecc9e6bb953ae24d90851258cc2f5c6105405161056052610540516104e0518082106130e05780820390509050610580526040610560a16000600055005b63a81f20ad811861154b576000546130e05760016000556c050c783ebf218f9e2d6310001454156111e2576029610480527f46756e64732061726520756e6c6f636b65642c20757365206e6f726d616c20776104a0527f69746864726177282900000000000000000000000000000000000000000000006104c0526104805061048051806104a001818260206001820306601f82010390500336823750506308c379a0610440526020610460526104805160206001820306601f820103905060440161045cfd5b60033360a052608052604060802080546104805260018101546104a052506104a051421061128157600c6104c0527f6c6f636b206578706972656400000000000000000000000000000000000000006104e0526104c0506104c051806104e001818260206001820306601f82010390500336823750506308c379a06104805260206104a0526104c05160206001820306601f820103905060440161049cfd5b6104a051428082106130e057808203905090506104c052670de0b6b3a76400006104c0518082028215828483041417156130e057905090506303c26700808204905090506c050c783ebf218f9e2d63100016548082028215828483041417156130e057905090506064808204905090506104e05261048051600081126130e0576105005261048051610520526104a0516105405260006104a05260006104805260033360a05260805260406080206104805181556104a0516001820155506002546105605261056051610500518082106130e057808203905090506002553360e0526105205161010052610540516101205261048051610140526104a0516101605261138b6125dc565b610500516104e0518082028215828483041417156130e05790509050670de0b6b3a7640000808204905090506105805263a9059cbb6105a052336105c05261050051610580518082106130e057808203905090506105e05260206105a060446105bc60006001545af1611403573d600060003e3d6000fd5b601f3d11156130e0576105a051156130e057600061058051146114c65763095ea7b36105a0526c050c783ebf218f9e2d63100015546105c052610580516105e05260206105a060446105bc60006001545af1611464573d600060003e3d6000fd5b601f3d11156130e0576105a051156130e05763f14faf6f6105a052610580516105c05260206105a060246105bc60006c050c783ebf218f9e2d63100015545af16114b3573d600060003e3d6000fd5b601f3d11156130e0576105a051156130e0575b337ff279e6a1f5e320cca91135676d9cb6e44ca8a08c0b88342bcdb1144f6511b568610500516105a052426105c05260406105a0a27f5e2aa66efd74cce82b21852e317e5490d9ecc9e6bb953ae24d90851258cc2f5c610560516105a05261056051610500518082106130e057808203905090506105c05260406105a0a16000600055005b6370a082318118611560574261010052611572565b62fdd58e811861169157602435610100525b6004358060a01c6130e05760e0526c050c783eb9b5c840000000000660e05160a05260805260406080205461012052610120511561167f57600461012051633b9aca008110156130e057026c050c783eb9b5c840000000000560e05160a05260805260406080200180546101405260018101546101605260028101546101805260038101546101a0525061014080516101605161010051610180518082106130e0578082039050905080607f1c6130e0578082028060801d81607f1d186130e057905090508082038060801d81607f1d186130e057905090508152506000610140511215611661576000610140525b61014051600081126130e0576101c05260206101c061168f5661168f565b600061014052602061014061168f565bf35b63782d6fe18118611ac7576004358060a01c6130e0576101a0524360243511156117515760226101c0527f4d757374207061737320626c6f636b206e756d62657220696e207468652070616101e0527f7374000000000000000000000000000000000000000000000000000000000000610200526101c0506101c051806101e001818260206001820306601f82010390500336823750506308c379a06101805260206101a0526101c05160206001820306601f820103905060440161019cfd5b60006101c0526c050c783eb9b5c84000000000066101a05160a0526080526040608020546101e05261020060006080818352015b6101e0516101c0511061179757611842565b6101c0516101e05181818301106130e05780820190509050600181818301106130e05780820190509050600280820490509050610220526024356003600461022051633b9aca008110156130e057026c050c783eb9b5c84000000000056101a05160a05260805260406080200101541115611829576102205160018082106130e057808203905090506101e052611832565b610220516101c0525b8151600101808352811415611785575b505060046101c051633b9aca008110156130e057026c050c783eb9b5c84000000000056101a05160a052608052604060802001805461020052600181015461022052600281015461024052600381015461026052506004546102805260243560e05261028051610100526118b76102c0612e99565b6102c0516102a05260046102a0516c01431e0fae6d7217caa00000008110156130e0570260050180546102c05260018101546102e0526002810154610300526003810154610320525060403661034037610280516102a051106119475743610320518082106130e057808203905090506103405242610300518082106130e05780820390509050610360526119cf565b60046102a051600181818301106130e057808201905090506c01431e0fae6d7217caa00000008110156130e0570260050180546103805260018101546103a05260028101546103c05260038101546103e052506103e051610320518082106130e05780820390509050610340526103c051610300518082106130e05780820390509050610360525b610300516103805260006103405114611a3957610380805161036051602435610320518082106130e057808203905090508082028215828483041417156130e05790509050610340518080156130e05782049050905081818301106130e057808201905090508152505b61020080516102205161038051610240518082106130e0578082039050905080607f1c6130e0578082028060801d81607f1d186130e057905090508082038060801d81607f1d186130e057905090508152506000610200511215611aab5760006103a05260206103a0611ac556611ac5565b61020051600081126130e0576103a05260206103a0611ac5565bf35b6318160ddd8118611adc574261026052611aef565b63bd85b0398118611b7857600435610260525b600454610280526004610280516c01431e0fae6d7217caa00000008110156130e0570260050180546102a05260018101546102c05260028101546102e052600381015461030052506102a05160e0526102c051610100526102e0516101205261030051610140526102605161016052611b69610320612f69565b61032051610340526020610340f35b63981b24d08118611e3057436004351115611c29576022610260527f4d757374207061737320626c6f636b206e756d62657220696e20746865207061610280527f73740000000000000000000000000000000000000000000000000000000000006102a05261026050610260518061028001818260206001820306601f82010390500336823750506308c379a0610220526020610240526102605160206001820306601f820103905060440161023cfd5b6004546102605260043560e0526102605161010052611c496102a0612e99565b6102a051610280526004610280516c01431e0fae6d7217caa00000008110156130e0570260050180546102a05260018101546102c05260028101546102e05260038101546103005250600061032052610260516102805110611d1457436103005114611ddb57600435610300518082106130e05780820390509050426102e0518082106130e057808203905090508082028215828483041417156130e0579050905043610300518082106130e057808203905090508080156130e05782049050905061032052611ddb565b600461028051600181818301106130e057808201905090506c01431e0fae6d7217caa00000008110156130e0570260050180546103405260018101546103605260028101546103805260038101546103a052506103a0516103005114611ddb57600435610300518082106130e05780820390509050610380516102e0518082106130e057808203905090508082028215828483041417156130e057905090506103a051610300518082106130e057808203905090508080156130e057820490509050610320525b6102a05160e0526102c051610100526102e0516101205261030051610140526102e0516103205181818301106130e0578082019050905061016052611e21610340612f69565b61034051610360526020610360f35b63bc536bce8118611f4a57600060e052610100600435612710818352015b602435610100511115611e6057611f3a565b60016101005168056bc75e2d631000008110156130e057026c050c783eb9b5c840000000000801546101205260036101205160a05260805260406080208054610140526001810154610160525060643560443581818301106130e05780820190509050610160511015611ed257611f2a565b60e0805162fdd58e61018052610120516101a0526064356101c0526020610180604461019c305afa611f09573d600060003e3d6000fd5b601f3d11156130e0576101805181818301106130e057808201905090508152505b8151600101808352811415611e4e575b505060e051610100526020610100f35b63fc0c546a8118611f615760015460e052602060e0f35b63047fc9aa8118611f785760025460e052602060e0f35b63cbf9fe5f8118611fb8576004358060a01c6130e05760e052600360e05160a0526080526040608020805461010052600181015461012052506040610100f35b63900cf0cf8118611fcf5760045460e052602060e0f35b63d1febfb9811861201f5760046004356c01431e0fae6d7217caa00000008110156130e05702600501805460e05260018101546101005260028101546101205260038101546101405250608060e0f35b6328d09d478118612090576004358060a01c6130e05760e0526004602435633b9aca008110156130e057026c050c783eb9b5c840000000000560e05160a052608052604060802001805461010052600181015461012052600281015461014052600381015461016052506080610100f35b63010ae75781186120d1576004358060a01c6130e05760e0526c050c783eb9b5c840000000000660e05160a052608052604060802054610100526020610100f35b63711974848118612102576c050c783eb9b5c840000000000760043560a05260805260406080205460e052602060e0f35b63365b98b2811861213d57600160043568056bc75e2d631000008110156130e057026c050c783eb9b5c8400000000008015460e052602060e0f35b63c96679fe811861217e576004358060a01c6130e05760e0526c050c783ebf218f9e2d6310000860e05160a052608052604060802054610100526020610100f35b6360407c8d81186121a1576c050c783ebf218f9e2d631000095460e052602060e0f35b6306fdde0381186122505760e0806020808252808301806c050c783ebf218f9e2d6310000a8082602082540160c060006003818352015b8260c05160200211156121ea57612209565b60c05185015460c05160200285015281516001018083528114156121d8575b5050505050508051806020830101818260206001820306601f8201039050033682375050805160200160206001820306601f820103905090509050810190509050905060e0f35b6395d89b4181186122ff5760e0806020808252808301806c050c783ebf218f9e2d6310000d8082602082540160c060006002818352015b8260c0516020021115612299576122b8565b60c05185015460c0516020028501528151600101808352811415612287575b5050505050508051806020830101818260206001820306601f8201039050033682375050805160200160206001820306601f820103905090509050810190509050905060e0f35b63313ce5678118612322576c050c783ebf218f9e2d6310000f5460e052602060e0f35b638ff36fd18118612345576c050c783ebf218f9e2d631000105460e052602060e0f35b637175d4f78118612368576c050c783ebf218f9e2d631000115460e052602060e0f35b63f851a440811861238b576c050c783ebf218f9e2d631000125460e052602060e0f35b6317f7182a81186123ae576c050c783ebf218f9e2d631000135460e052602060e0f35b6381565a9481186123d1576c050c783ebf218f9e2d631000145460e052602060e0f35b633b3e7fb681186123f4576c050c783ebf218f9e2d631000155460e052602060e0f35b63f3ad1ec88118612417576c050c783ebf218f9e2d631000165460e052602060e0f35b505b60006000fd3260e05114612527576c050c783ebf218f9e2d6310001154610100526000610100511461248d5763c23697a86101205260e051610140526020610120602461013c6000610100515af1612476573d600060003e3d6000fd5b601f3d11156130e057610120511561248d57612527565b6025610120527f536d61727420636f6e7472616374206465706f7369746f7273206e6f7420616c610140527f6c6f7765640000000000000000000000000000000000000000000000000000006101605261012050610120518061014001818260206001820306601f82010390500336823750506308c379a060e0526020610100526101205160206001820306601f820103905060440160fcfd5b565b60006c050c783ebf218f9e2d6310000860e05160a05260805260406080205414612552576125da565b6c050c783ebf218f9e2d631000098054600181818301106130e0578082019050905081555060e05160016c050c783ebf218f9e2d631000095468056bc75e2d631000008110156130e057026c050c783eb9b5c840000000000801556c050c783ebf218f9e2d63100009546c050c783ebf218f9e2d6310000860e05160a0526080526040608020555b565b61014036610180376004546102c052600060e0511461274d5742610120511161260657600061260e565b600061010051135b1561266c57610100516303c267008082058060801d81607f1d186130e057905090506101a0526101a05161012051428082106130e0578082039050905080607f1c6130e0578082028060801d81607f1d186130e05790509050610180525b42610160511161267d576000612685565b600061014051135b156126e357610140516303c267008082058060801d81607f1d186130e05790509050610220526102205161016051428082106130e0578082039050905080607f1c6130e0578082028060801d81607f1d186130e05790509050610200525b6c050c783eb9b5c84000000000076101205160a052608052604060802054610280526000610160511461274d5761012051610160511861272a57610280516102a05261274d565b6c050c783eb9b5c84000000000076101605160a0526080526040608020546102a0525b6040366102e0374261032052436103405260006102c05111156127ac5760046102c0516c01431e0fae6d7217caa00000008110156130e0570260050180546102e052600181015461030052600281015461032052600381015461034052505b61032051610360526102e05161038052610300516103a052610320516103c052610340516103e0526000610400526103205142111561283a57670de0b6b3a764000043610340518082106130e057808203905090508082028215828483041417156130e0579050905042610320518082106130e057808203905090508080156130e057820490509050610400525b6103605162093a808082049050905062093a808082028215828483041417156130e0579050905061042052610440600060ff818352015b610420805162093a8081818301106130e057808201905090508152506000610460524261042051116128c4576c050c783eb9b5c84000000000076104205160a052608052604060802054610460526128ca565b42610420525b6102e080516103005161042051610360518082106130e0578082039050905080607f1c6130e0578082028060801d81607f1d186130e057905090508082038060801d81607f1d186130e057905090508152506103008051610460518082018060801d81607f1d186130e0579050905081525060006102e051121561294f5760006102e0525b6000610300511215612962576000610300525b610420516103605261042051610320526103e05161040051610420516103c0518082106130e057808203905090508082028215828483041417156130e05790509050670de0b6b3a76400008082049050905081818301106130e05780820190509050610340526102c08051600181818301106130e057808201905090508152504261042051186129fa574361034052612a4c56612a3c565b60046102c0516c01431e0fae6d7217caa00000008110156130e057026005016102e0518155610300516001820155610320516002820155610340516003820155505b8151600101808352811415612871575b50506102c051600455600060e05114612af5576103008051610220516101a0518082038060801d81607f1d186130e057905090508082018060801d81607f1d186130e057905090508152506102e0805161020051610180518082038060801d81607f1d186130e057905090508082018060801d81607f1d186130e057905090508152506000610300511215612ae2576000610300525b60006102e0511215612af55760006102e0525b60046102c0516c01431e0fae6d7217caa00000008110156130e057026005016102e051815561030051600182015561032051600282015561034051600382015550600060e05114612cc95742610120511115612bbc5761028080516101a0518082018060801d81607f1d186130e05790509050815250610120516101605118612b99576102808051610220518082038060801d81607f1d186130e057905090508152505b610280516c050c783eb9b5c84000000000076101205160a0526080526040608020555b42610160511115612c185761012051610160511115612c18576102a08051610220518082038060801d81607f1d186130e057905090508152506102a0516c050c783eb9b5c84000000000076101605160a0526080526040608020555b6c050c783eb9b5c840000000000660e05160a052608052604060802054600181818301106130e0578082019050905061044052610440516c050c783eb9b5c840000000000660e05160a05260805260406080205542610240524361026052600461044051633b9aca008110156130e057026c050c783eb9b5c840000000000560e05160a052608052604060802001610200518155610220516001820155610240516002820155610260516003820155505b565b610500516105605261052051610580526002546105a0526105a0516104c05181818301106130e05780820190509050600255610560516105c052610580516105e05261056080516104c05180607f1c6130e0578082018060801d81607f1d186130e0579050905081525060006104e05114612d49576104e051610580525b60036104a05160a0526080526040608020610560518155610580516001820155506104a05160e0526105c051610100526105e0516101205261056051610140526105805161016052612d996125dc565b60006104c05114612df5576323b872dd61060052610480516106205230610640526104c051610660526020610600606461061c60006001545af1612de2573d600060003e3d6000fd5b601f3d11156130e05761060051156130e0575b6104a05160e052612e04612529565b610580516104a051610480517f4ace3cb811d903eba44ce1721d1a1d79232246711977f44236000551f8c11cc16104c05161060052610540516106205242610640526060610600a47f5e2aa66efd74cce82b21852e317e5490d9ecc9e6bb953ae24d90851258cc2f5c6105a051610600526105a0516104c05181818301106130e05780820190509050610620526040610600a1565b600061012052610100516101405261016060006080818352015b610140516101205110612ec557612f5e565b610120516101405181818301106130e05780820190509050600181818301106130e057808201905090506002808204905090506101805260e05160036004610180516c01431e0fae6d7217caa00000008110156130e0570260050101541115612f45576101805160018082106130e0578082039050905061014052612f4e565b61018051610120525b8151600101808352811415612eb3575b505061012051815250565b60e05161018052610100516101a052610120516101c052610140516101e0526101c05162093a808082049050905062093a808082028215828483041417156130e0579050905061020052610220600060ff818352015b610200805162093a8081818301106130e05780820190509050815250600061024052610160516102005111613015576c050c783eb9b5c84000000000076102005160a0526080526040608020546102405261301e565b61016051610200525b61018080516101a051610200516101c0518082106130e0578082039050905080607f1c6130e0578082028060801d81607f1d186130e057905090508082038060801d81607f1d186130e05790509050815250610160516102005118613082576130ba565b6101a08051610240518082018060801d81607f1d186130e05790509050815250610200516101c0528151600101808352811415612fbf575b505060006101805112156130cf576000610180525b61018051600081126130e057815250565b600080fd5b61020b6132f00361020b60003961020b6132f0036000f35b600080fd"
}